:020000040800F2
:10000000D00A0020B10100081D3500080D3100089C
:1000100000000000000000000000000000000000E0
:100020000000000000000000000000002D39000862
:100030000000000000000000ED3600082F39000825
:10004000C301000800000000C3010008C30100084C
:10005000C3010008C3010008C3010008C301000870
:1000600000000000011D0008C3010008C3010008D2
:10007000C3010008C3010008C3010008000000001C
:10008000C3010008C301000800000000C30100080C
:10009000C3010008B5390008C3010008C301000806
:1000A000C3010008C3010008C3010008C301000820
:1000B000C301000800F002F800F04EF80CA030C8B0
:1000C000083824182D18A246671EAB4654465D46D4
:1000D000AC4201D100F040F87E460F3E0FCCB64650
:1000E0000126334200D0FB1AA246AB4633431847E1
:1000F000404A0000604A0000103A02D378C878C134
:10010000FAD8520701D330C830C101D504680C6059
:10011000704700000023002400250026103A01D378
:1001200078C1FBD8520700D330C100D50B607047AF
:1001300010B5662902D104F06DF810BD002010BD85
:100140001FB500F0C5FF04000020002104F04CF8AA
:10015000E0601FBD10B510BD01F070FB1146FFF748
:10016000EFFF03F075FE01F088FB03B4FFF7F2FF29
:1001700003BC01F0CFFB000070B505460C461646E7
:1001800002E00FCC0FC5103E102EFAD2082E02D37B
:1001900003CC03C5083E042E07D301CC01C5361F8E
:1001A00003E021782970641C6D1C761EF9D270BDA5
:1001B0000748804707480047FEE7FEE7FEE7FEE7FF
:1001C000FEE7FEE704480549034A054B7047000077
:1001D000B3390008B5000008D0060020D00A00207E
:1001E000D0060020FEB5054610460C46184373D0D5
:1001F000AE468C460020AD1A01469C4167D3664648
:10020000002701243D46B61A9D4102D313463A46C3
:100210002124654676462F04360C3E432D0CB61A33
:100220009D4104D3150C1B042B4312041034654666
:1002300076462F06360A3E432D0AB61A9D4104D350
:10024000150E1B022B4312020834654676462F0713
:1002500036093E432D09B61A9D4104D3150F1B01E3
:100260002B431201241D65467646AF07B6083E4370
:10027000AD08B61A9D4104D3950F9B002B43920005
:10028000A41C65467646EF0776083E436D08B61A0D
:100290009D411AD392185B41641C16E00018764603
:1002A00065464941B71A9D410191009009D36046C6
:1002B000B11A98418E468446009801990025401C49
:1002C0006941DD0752082A435B08641EE6D5724681
:1002D000634603B0F0BDFFE700200146C046C046BC
:1002E0002A462346F5E700000FB41CB50C0007AA08
:1002F000009001D00019401E084B7B4469460190D4
:10030000069800F0B0FE002C03D06946002000F0F3
:10031000BDFE1CBC08BC04B018470000990D0000CD
:10032000F3B50446002081B020622046E16888478A
:1003300000287AD0252802D06268A16871E0E168BF
:1003400020460025884706460020E0610746A06158
:100350002A2E0AD0304603F057FD002827D0B800D7
:100360000019303E0090866119E00298BA00121917
:1003700002C8916102902046E1688847012F064635
:1003800017D1E06900281FDA202085431CE000987F
:100390000A218069484300998019303888612046D5
:1003A000E1688847064603F02FFD0028EFD1012FB2
:1003B0000AD02E2E08D12046E16888470646202024
:1003C00005437F1C022FC3DBA069002803DA4042EB
:1003D000A06101200543E80701D010208543002ECD
:1003E00023D030464138192803D80120C0020543E4
:1003F0002036204625603146029A1546FFF798FEC2
:1004000000280BD0012806D0ED1DE808C0000830F8
:1004100002908AE709E02D1D029586E76268304662
:10042000A1689047206A401C7EE7206AFEBD00005C
:10043000034670B502460B439B070FD10E4CE601F5
:1004400000E008C208C91D1B9D433542F9D0D9B24E
:100450001170521C00290DD01B0AF8E70B78491CBB
:100460001370521C002B05D00B78491C1370521CC2
:10047000002BF3D170BD000001010101421E537831
:10048000521C002BFBD10B78491C1370521C002B03
:10049000F9D17047F8B5042A2CD3830712D00B7812
:1004A000491C0370401C521E83070BD00B78491C5B
:1004B0000370401C521E830704D00B78491C037044
:1004C000401C521E8B079B0F05D0C91ADF0020234A
:1004D000DE1B08C90AE0FFF74FFEF8BD1D4608C93C
:1004E000FD401C46B4402C4310C0121F042AF5D214
:1004F000F308C91A521EF0D40B78491C0370401C33
:10050000521EEAD40B78491C0370401C012AE4D423
:1005100009780170F8BDD2B210B513029A1813040D
:100520009A1800F00EF810BD01E004C0091F04295C
:10053000FBD28B0701D50280801CC90700D0027056
:10054000704700290BD0C30702D00270401C491E1F
:10055000022904D3830702D50280801C891EE3E7A9
:100560000022EEE70022DFE7002203098B422CD3B2
:10057000030A8B4211D300239C464EE003460B43F3
:100580003CD4002243088B4231D303098B421CD355
:10059000030A8B4201D394463FE0C3098B4201D347
:1005A000CB01C01A524183098B4201D38B01C01A7F
:1005B000524143098B4201D34B01C01A52410309F6
:1005C0008B4201D30B01C01A5241C3088B4201D3A5
:1005D000CB00C01A524183088B4201D38B00C01A52
:1005E000524143088B4201D34B00C01A5241411A79
:1005F00000D201465241104670475DE0CA0F00D05C
:100600004942031000D34042534000229C46030954
:100610008B422DD3030A8B4212D3FC22890112BADA
:10062000030A8B420CD3890192118B4208D38901B2
:1006300092118B4204D389013AD0921100E08909CA
:10064000C3098B4201D3CB01C01A524183098B42AB
:1006500001D38B01C01A524143098B4201D34B0194
:10066000C01A524103098B4201D30B01C01A5241F7
:10067000C3088B4201D3CB00C01A524183088B427E
:1006800001D38B00C01A5241D9D243088B4201D307
:100690004B00C01A5241411A00D2014663465241F2
:1006A0005B10104601D34042002B00D549427047F1
:1006B00063465B1000D3404201B50020C046C046EF
:1006C00002BD7047704770470246C80FC00781439C
:1006D0004B0030B54B405B009B0D20D01923DB064F
:1006E000C91801231B05994220DB0324A407042514
:1006F0001346AB400BD3002B04D1EB0613409B00F9
:10070000E34204D401246407002312195941FF2352
:100710001B0599420BD2C9000143500F09E0CB02DF
:1007200004D501430803024305D0054830BDFF212D
:10073000C905084330BD084607210905884330BD77
:100740000000C07FF0B58B4C0F09254689B0BD4332
:100750007BD01D092646AE43FAD00E465E402740A8
:10076000F60F3E43254071D024012142FBD0FF24E7
:10077000AD19A4042D1B039501252D05DB02DB0A11
:10078000C9022B43C90A29431E010901040F130F93
:10079000050121431701880B820391432D098C46E3
:1007A000A90B1E438A039543B30B9A0396433F0953
:1007B000BA0B9403A74302962E467E430497B6468F
:1007C0004E19D7190C460196544305977E43371BA3
:1007D0007646BF1B3601B646BE0B361900967646E6
:1007E000BC043719009C01D3641C00946400002FE2
:1007F00001D001263443029E049F754366467E4322
:100800000496760034196E0034190094029C019EFF
:100810001C196643751BAE46069465464519059C32
:1008200005956C43594375460891691A0191049ED8
:1008300001465143A41B0491611A009C0791E106F3
:1008400005D061090122114302E072E06EE0610906
:10085000089D00272C0A2D066918049D7C412A0A50
:100860002D066918019D6241AC0DAD026D18544111
:10087000079A910D920255196141029A64465843B4
:100880005443069B059A5A43121A131B9A0E9B0156
:100890005B187A41010B0005C3185141220A20065A
:1008A00044195A419A4200D2491C01204002814217
:1008B00003D315230226F64302E014230326F6434E
:1008C0002020C51AA9401746AF40DA400A43204607
:1008D0000399D8400914731819055118039A38431D
:1008E000D2075140AC4009D00122944006D30022E7
:1008F000401C5141002C01D1400840001E4A934247
:1009000012D3012203989206904207DB052040078C
:1009100009181A480143C012414004E0032040076F
:100920000818C10FC907002009B0F0BD0020F10769
:10093000FAE705180C464C4111486D42A04115D309
:1009400094181A465A410E48644290410ED3012031
:100950004A004005824209D35A00824206D35940D8
:10096000C90F084AC90700201143DDE700200649E6
:10097000DAE700000000FF07FE070000FFFFFF7F2F
:100980000000E0FF0000F07F0000F87F70B5054632
:100990004800440D124B0020002C0AD0634008D0C0
:1009A0009A4206DA6642B24203DD1205401951410D
:1009B00070BD002C08D0002B09D0C90FC907002A30
:1009C000F6DB084A114370BDC90FC90770BD284640
:1009D0000A03104302D00020034970BD284670BDB1
:1009E000FF0700000000F07F0000F87F0121C9052B
:1009F0000123411842001B06D3185B0E0AD0C11018
:100A00000722D206891840075242D14201D552002E
:100A100089187047090208D50146002A03D0C10F82
:100A2000C9070020704710467047420202D00020DC
:100A300002497047072109050143F4E70000F87FE8
:100A4000F0B5FF252D04C609C209FF2704462E4034
:100A50000137CB093E4348402A402B400746002A35
:100A60006BD0002B69D0AA4267D0AB4265D000287A
:100A700000DA32460125ED0529432C430902200204
:100A8000090AD21A4B0C7F24E31A434C000A7C4417
:100A9000E35C7D242404121914145B00A21888421C
:100AA00001D3521C00E0400049420C465C43241133
:100AB0005C43DB016415E318040A5C43C502200DA6
:100AC0000C4644436419250A5D432303EC0C0D4690
:100AD000654300030019EB184C42A34201D35B1895
:100AE000401CD4052018002B07D05B00C91804D384
:100AF000401C002901D1400840003F2189048A425E
:100B000009D3002A08DC1106090F04D00321490784
:100B10004018C00FC007F0BD01224100120689181D
:100B20007F2252069142F6D205214907C84201D5DB
:100B30009010F0BDFF20C005F0BD002F00DA324656
:100B40001648AA4207D2AB4205D21902090E17D0A5
:100B5000F80FC007F0BDFF2563002D06AB42F9D8A2
:100B60004900A942F6D8AB4201D1A942F2D0A9422C
:100B700001D1002101E061004908D0050843F0BD22
:100B80001102090EFBD0FF200243D005F0BD0A463A
:100B90000146104654E70000CA3F00000000C07F35
:100BA0001F22030C02D10F2200041CD0030E01D11E
:100BB0000002083A030F01D10001121F830F01D177
:100BC0008000921E002801DB4000521ED205511801
:100BD000021251181922904004D3491C002801D157
:100BE0004908490008467047C10FC90700D0404274
:100BF000012292071143D3E701218907D0E70000C2
:100C000010B5FF22C30D134009D05A4007D09142BE
:100C100005DA5C42A14202DDC905081810BDC40F07
:100C2000E407002B06D0002A06D0002902DBFF20B3
:100C3000C0050443204610BD4102FCD0004810BD51
:100C40000000C07F7047FFB50C461E468FB003CA38
:100C5000089009914F007D0D00D16D1E00210846BE
:100C60000020C0460321099A89050840002A03DABA
:100C70008200801840080840800D01280A9002DD9B
:100C80000020C0430A90089807430DD0F048F1496E
:100C9000281848430714189800281DD07542291EAB
:100CA0001DDD0A9842421BE01898012802D000205E
:100CB000302104E00020F24305E02154401CB04202
:100CC000FBDB30460022189B002121540F998B60DA
:100CD0000A60486013B0F0BDBD1B6D1CDFE70A9AC7
:100CE000002900DA69420BA800F078FA0BAB07CBB9
:100CF00003AB07C30899099800F0DCFA6B4607C3F9
:100D00000146D5480918002D00910BDDD249039802
:100D10000A9A49424018002303A90390684600F04C
:100D200039FD08E003990A9A0023081803A90390E3
:100D3000684600F0D9FC6B4607C30004000C03D0E2
:100D40000020C043410800E01046189A002A03D052
:100D50000022009215461EE0751E05D400F0BCF975
:100D6000303262556D1EF9D501220843079602D034
:100D700000227F1C04E02078302801D100227F1E51
:100D8000002A069787D01EE0112D07DA00F0A4F99B
:100D9000303262556D1C02460A43F5D1084303D038
:100DA0000098002819D00EE00021681E05E0235CA1
:100DB000625C63542254401E491C8142F7DBA81B2D
:100DC000401E07950690079A18990020A0540F9886
:100DD000079B069A81600CC07CE7112600201890C2
:100DE00059E7D21DF0B50D460446D10893B0C900AD
:100DF00003C90C900D9102F0CFFF02460D98C00F71
:100E000001D02D2007E02068810701D52B2002E0CA
:100E10004007C00F4001032A0F9001D0072A05DBCD
:100E200003462946204600F095F90EE12078800619
:100E300001D5E76900E006272846652D04D066281D
:100E400014D0672D69D12DE00020112F009001DB17
:100E5000112300E07B1C0CAA03A910A8FFF7F3FEE6
:100E60001199002610987D1C0E9142E001203B460E
:100E70000CAAC0070B900120009003A910A8FFF74F
:100E8000E2FE119D12981099002600280E9501D1BE
:100E9000781C0D18781B02D446427D1C761EE81B78
:100EA00000903AE0012F00DA01270020112F009076
:100EB00001DD112300E03B460CAA03A910A8FFF7AF
:100EC000C2FE11993D46109800260E91217809071F
:100ED0000BD40E99A94200DA0D4603A9012D04DDB9
:100EE0004A19203AD27F302A06D0B84201DA011DD1
:100EF00004DA012100910FE06D1EEFE7002802DC0B
:100F000086192D1A03E0411CA94200DD0D46801B05
:100F1000401C00900120C0070B902078000705D4EA
:100F20000098A84202DB0020C043009069460020E0
:100F3000C8720B98012102AF0337C907884225D038
:100F4000022010902B2011900B9800280BDA4042C1
:100F50000B902D20119006E00B9800F0A4F8303192
:100F60007F1E0B9039701099481E00291090F3DCF9
:100F70000B980028F0D111987F1E3870208800054A
:100F800001D5452000E065207F1E387001A8C01BF8
:100F9000C01D0B900F98002800D001204119009827
:100FA000C01709180B980818A169081A401EA061FB
:100FB0002078C00602D42046C046C0460F980028BC
:100FC00005D06268A1689047206A401C20622078A2
:100FD000C00625D52046C046C04621E0002E07DBCE
:100FE0000E98B04204DD03A86268805DA16802E04B
:100FF0006268A16830209047206A761C401C2062FD
:101000000098401E002800900AD100F061F8C068E6
:1010100062680168405CA1689047206A401C2062B9
:1010200028466D1E0028D9DC07E062683878A16880
:101030007F1C9047206A401C20620B99481E0029A3
:101040000B90F2DC2046C046C046032042E600007A
:1010500001FCFFFF104D0000E1DFFFFF01694A1CAA
:1010600002610878704700B58FB0029100210591A8
:101070000549019379440391114604906846FFF7AE
:101080004FF90FB000BD0000E5FFFFFF0A681070C8
:10109000521C0A6070470CC908399A4202D2531C8C
:1010A0000B601070704701468008081A020910187A
:1010B000020A1018020C1018C00882001218520000
:1010C000891A01E0401C0A390A29FBD27047000046
:1010D00000487047900600200B4670B5024689070D
:1010E0008008084319469D08141AA94125090807D4
:1010F000054308092C194841250A01060D43010A38
:101100002C194141200C0D0428430D0C00194D41B0
:10111000002140194D41C00869070843E908840FC0
:101120008D002543840024184D4124196D41121B64
:10113000AB4107E00925ED432C115219634100240E
:10114000401C61411C460A250026551BB441F1D2C2
:1011500070BD0000F8B51F46044601230068DB029D
:10116000032601461840072A05DB002801D017A5F1
:1011700006E017A504E0002801D016A500E016A59A
:10118000102081432160A069C01E002FA06101D002
:10119000401EA0612046C046C046002F09D03846F8
:1011A0006268A1689047206A401C2062C01C2062CF
:1011B00006E0206AFAE762682878A1686D1C90470B
:1011C000761EF8D22046C046C046F8BD4E414E00BD
:1011D0006E616E00494E4600696E6600F7B51646B0
:1011E0008AB0334878446C4603467C33C06F5A68F3
:1011F0009B680DC42E487844763003AC0DC80DC4EE
:101200003720C001081837211B30FFF7B7F9054612
:101210000C46803D1B3C02D56442012000E00020CA
:101220000027099010E0E0070CD00C2020497843FB
:10123000794432464C3941186846012300F054FA8B
:101240006B4607C364107F1C002CECD1184F7F4401
:101250002E3F16E0E80712D02001C0190EC80691F3
:10126000089307920068F04201D19819089032461D
:10127000012306A903A800F037FA03AB07C36D10DA
:10128000641C002DE6D10998002806D03246694634
:10129000012303A800F07EFA05E0012332466946E7
:1012A00003A800F021FA0A9B07C30DB0F0BD0000AF
:1012B000B4380000034640000A4610B5400D0BD07C
:1012C0000121C9070F24A40200191C03640821434B
:1012D000540D2143D20207E000210120F2E7D40F90
:1012E000490021435200401E0029F8DADB0FDB07DA
:1012F000184310BDFFB50D46144685B048685168C7
:1013000002F031FD00910190A868A16802F02BFD68
:1013100002910390A868616802F025FD029A1218F4
:101320008242029201D2012000E00020019A0B18B3
:10133000D2180028019202D08A4202D903E08A42E0
:1013400001D2012000E00020009908180090686890
:10135000A16802F008FD029A12188242029201D29C
:10136000012000E00020019A0B18D21800280192F9
:1013700002D08A4202D903E08A4201D2012000E071
:101380000020009908180090286821684000490052
:10139000400849084018FA49471814E001994000EC
:1013A000C90F08430090019802994000C90F0843F3
:1013B0000190029803994000C90F084302900398D6
:1013C00040007F1E039000980028E7DA0898002864
:1013D00001D0EC4E00E00026B74201DA012000E027
:1013E0000020002804902AD0F71BF806C00E15D064
:1013F000029B2021091A039A8B401A430392029AF6
:10140000019BC2408B401A430292019A009BC2404A
:101410008B4000991A430192C14000917B110DD07D
:101420006F460320C11A03D500218200B95003E0A2
:101430008A008100BA587A50401EF3D53746039887
:101440000299002800D00120014308980291002849
:1014500008460CD0002800D001200199019A4905C6
:1014600008430121D20AC902D202019200E00121FF
:101470000E9B0122D207012B02D0002B03D013E0D8
:10148000002807D120E0904204D890420CD1019B63
:101490000B4209D0019B5918019105D10099491CB3
:1014A000009101D17F1C009200280DD01021084628
:1014B0000020C0460498002806D00F98002803D0CA
:1014C000082108460020C04628682168019B009A30
:1014D0004840C10F0598C90739430EC009B0F0BD97
:1014E000FFB587B0099A08980899536892684068D0
:1014F000896896460022039317469446089A126814
:101500005300099A5B081268520052089A1A9E4BBF
:10151000D4180A9A002A01D0352200E0402206920F
:101520000022012315460492DB07059324E0002DD9
:1015300005D175460346039E4D1BB34109D375463D
:101540006646039B491B049D9841059B7519AC4653
:101550005F4163463B4308D0059B049EDD07760848
:101560002E435B080496059301E0521E641EC50FCE
:10157000ED0749184041521C069B9A42D7DB002DCB
:1015800004D17546039A6B1A824101D203200CE004
:10159000039A0B466B404240134303D0014303D0F0
:1015A000012002E0022000E00020614601910021BC
:1015B000009702910A99002905D061464002014333
:1015C000704B019102E08007002302909C4201DAF7
:1015D000012000E0002007003AD01A1BD006C00E00
:1015E00015D0029D2021019C091AC5408C4025433D
:1015F000029C8C4000D001242543019C0295009D53
:10160000C4408D4000992C430194C1400091541175
:101610001DD06D460221002202290CD10320001B9F
:1016200007E0002804DB8600AE59002E00D001221E
:10163000401C0328F5DB081B02D588002A5004E073
:101640008000285810438A00A850491EE3D51C4644
:101650000A98002802980CD0002800D00120019997
:10166000019A490508430121D20AC902D202019216
:1016700000E00121109B0122D207012B02D0002B98
:1016800003D013E0002807D11FE0904204D8904215
:101690000CD1019B0B4209D0019B5918019105D136
:1016A0000099491C009101D1641C009200280CD0C3
:1016B000102108460020C046002F06D011980028AF
:1016C00003D0082108460020C04608980999019ACD
:1016D000009B006809684840C10F0798C90721436B
:1016E00082600AC00BB0F0BD00B585B001930092D6
:1016F0000A460146002302A8FFF7FCFD02A807C81E
:1017000005B000BDFFB50A461F4685B00799019395
:1017100001230091014602A8FFF7ECFD029903980E
:10172000049ECA0F4900D20700920F224908920274
:101730008C1A0021002800DB0C46450013486D0878
:10174000844214D3079A002A04DA441E0026104D5E
:10175000F64302E004460D460E46102108460020DE
:10176000C046002F03D0042108460020C0462005B3
:10177000E90A0843009908436905F20A1143ADE6F6
:1017800002C0FFFF013C0000FF3F0000FF07000018
:10179000FFFFFF7F00B585B0019300920A46014626
:1017A000002302A8FFF79CFE02A807C8A8E7FFB520
:1017B0000A461F4685B0079901930123009101460F
:1017C00002A8FFF78DFE02990398049ECA0F4900F4
:1017D000D20700920F22490892028C1A0021002899
:1017E00000DB0C46450011486D08844214D3079A6B
:1017F000002A04DA441E00260D4DF64302E004469A
:101800000D460E46102108460020C046002F03D08A
:10181000042108460020C0462005E90A0843009933
:1018200008436905F20A114358E60000FF0700006B
:10183000FFFFFF7F00487047700600207546FFF7E6
:10184000F9FFAE46050069465346C008C00085460C
:1018500018B020B5FEF7B6FC60BC00274908B646B4
:101860000026C0C5C0C5C0C5C0C5C0C5C0C5C0C5AF
:10187000C0C5403D49008D46704710B50446C0467E
:10188000C0462046FEF771FC10BD0000024670B550
:101890000A4392072AD11E4DEE0104C808C9541B01
:1018A0009443344017D0D0B2D9B2401A2106014334
:1018B00010D190B299B2401A210401430AD110020A
:1018C0001902000A090A401A2102014302D1100E2E
:1018D000190E401A70BD9A42DFD010BA19BA884268
:1018E00001D9012070BD0020C04370BD02780B7883
:1018F000401C491C002A09D09A4207D102780B7873
:10190000401C491C002A01D09A42EFD0D01A70BD69
:101910000101010101491820ABBEFEE726000200CB
:10192000704710B50146406A826B50231A420AD1B3
:10193000816B01225202114381630168CA6812055A
:10194000920F05D020E0006B026B0846904710BD57
:10195000827E002A18D10A68120715D58A685307B3
:101960000122002B09DB4B680C24A3434B60816BE5
:10197000130299431143816306E0816B20231943CD
:101980008163C16B1143C16300F0CEFA10BD10B585
:10199000406A816B402211438163C16B0422114371
:1019A000C16300F0C3FA10BD10B5406A00F0BDFA83
:1019B00010BD0000F8B50446002000902068816842
:1019C0008907890F012905D10168C90731D1C1688B
:1019D00009042ED48168184A1026114001250029D7
:1019E0001AD1816829438160154814490068FEF7BF
:1019F000BBFD00E0401E00900028FBD100F090FDF0
:101A0000074611E000F08CFDC01B02280CD92068AD
:101A10000068C043C00707D0A06B3043A063E06BF1
:101A20002843E0630120F8BD20680068C043C00778
:101A3000E8D10020F8BD00001700008040420F00F0
:101A40002C00002000B5FF21712000F049F9012190
:101A50003C2000F045F907213D2000F041F90E211E
:101A6000202000F03DF90121212000F039F9012169
:101A7000222000F035F90321232000F031F9FA216A
:101A8000242000F02DF90E21262000F029F9FF2155
:101A9000702000F025F900BD70B506460D466020A7
:101AA00000F02AF8044602463146612000F038F87A
:101AB0002C70002070BD000030B50E4900220B686C
:101AC00003242406A3430B6001235B038B620124E0
:101AD0004006000E8B610D69ED0401D5204301E045
:101AE000400840008B62521CD2B2082AF0D38B62AD
:101AF00030BD00000004004830B50124044DA403AB
:101B0000AC6200F0A9F8FFF7D7FFAC6130BD000070
:101B10000004004800B50720FFF7EEFF00BD0000FD
:101B2000F7B50126084FB6031546BE6200F094F8DB
:101B3000002405E0FFF7C0FF01990855641CE4B2DA
:101B4000AC42F7D3BE61FEBD000400481CB511A431
:101B5000FF21712000F0C4F8FF21742000F0C0F8CC
:101B600005222146302000F0A3F805226946102006
:101B7000FFF7D6FF0020694622780B5C641C9A426E
:101B800001D001201CBD401CC0B20528F4D30020A8
:101B90001CBD0000434932345200000000B57D28CE
:101BA00000D97D200146252000F09AF800BD10B52F
:101BB000044601460522302000F07AF8052221462D
:101BC0002A2000F075F810BD10B504460146052224
:101BD000302000F06DF8052221462A2000F068F838
:101BE00010BD00B50020FFF787FF41084900202005
:101BF00000F076F800BD00000A4610B50146A020AE
:101C000000F056F8FF21702000F06AF8752000F00F
:101C100043F81048016803221206914301600169EC
:101C2000C904FCD4016891430122120611430160EA
:101C3000742000F031F8FFF76DFF0446C00603D5AD
:101C4000FF21E12000F04CF82146272000F048F861
:101C5000204610BD0004004830B5002301240D4A81
:101C600064039462116803252D06A9439503294353
:101C7000116061109462050601D5916100E09162E6
:101C8000946140065B1C000EDBB2082BF2D3946219
:101C900030BD00000004004830B50125034CAD0301
:101CA000A562FFF7D9FFA56130BD00000004004820
:101CB000F0B50D4601270949BF0316468F62FFF7AD
:101CC000CBFF002405E028786D1CFFF7C5FF641CDE
:101CD000E4B2B442F7D301488761F0BD0004004884
:101CE00070B50125054CAD030E46A562FFF7B4FFA4
:101CF0003046FFF7B1FFA56170BD00000004004849
:101D000010B5024800F074FA10BD00007401002004
:101D100010B504460068054940181421FEF724FC5C
:101D2000800020640248E06310BD0000F8FFFDBFA2
:101D30000000024030B5056C0124AC40C56B6C60FE
:101D4000046863604368102B036803D099600068DF
:101D5000C26030BD9A600068C16030BD72B6FEE7F7
:101D6000F8B5054604462035287D0026012808D010
:101D700001202875206881688907890F012908D109
:101D800001E00220F8BD0168C9073CD1C16809041F
:101D900039D4A16BFF220132914302221143A16386
:101DA000C1688907890F0091C16889088900C160ED
:101DB0002068816892071143816000F0B1FB0746FB
:101DC00012E000F0ADFBC01B02280DD9206880682E
:101DD000002809DAA06B0221884310210843A06380
:101DE000002028750120F8BD206880680028E8DB05
:101DF0002068C168009A1143C160A06B8008800010
:101E0000401CA06304E0A06B20210843A0630126CE
:101E1000002028753046F8BDF8B50025044620346A
:101E20000095227D012A39D00122227503689E681F
:101E3000760767D4384F4E68BE424DD09E6A0F7801
:101E4000BA4016439E620123C26A1B079A421FD002
:101E5000012A1DD0022A1BD0032A19D0042A17D028
:101E6000052A15D0062A13D0072A11D002688B68DC
:101E700056697607760FB3420AD05369DB08DB0058
:101E80005361006842690B7A5B075B0F1A4342613A
:101E90000A68102A04D0112A02D038E00220F8BDC6
:101EA0001E488368102A07D00122920513438360DD
:101EB0000868102803D02AE00122D205F6E7194865
:101EC00017490068FEF750FB0A21484300E0401E16
:101ED00000900028FBD11AE0986A0E78B240904337
:101EE00098620968102901D0112910D10B48826825
:101EF000102904D0012189058A43826007E001216D
:101F0000C905F9E7816B2022114381630125002077
:101F100020752846F8BD0000011000000027014090
:101F200040420F002C0000207047704770470000AF
:101F3000F8B500260446002805D0A06B25462035BC
:101F4000002802D007E00120F8BD0020E0632875DA
:101F5000204600F0A9F8A06B1022C006002870DB14
:101F60002068816849076CD4A16B1301994302234F
:101F70001943A16381688907890F012905D1016887
:101F8000C9070FD1C16809040CD4C168182399434B
:101F9000A3681943C16020680169636889008908E2
:101FA000194301612068C1683D4B1940C160207E22
:101FB000617E8003C9030843A17E4B031843A36AD3
:101FC000012B02D001231B0300E000231843E36828
:101FD00018432369022B09D0002318432B79E57E8F
:101FE0005B0018430123012D02D00AE00423F4E72B
:101FF000002927D0A16B20252943A163E16B194358
:10200000E163E1690D46FF3DC23D02D0256A2943E7
:1020100008432168CD680543CD600125E16A2D079D
:10202000A94213D0012911D002290FD003290DD0C4
:1020300004290BD0052909D0062907D0072905D086
:1020400010E028E0012109040843DAE721684D691E
:10205000ED08ED004D6121684D69A78D7F077F0F69
:102060003D434D612168C9680E4D2940814207D129
:102070000020E063A06B80088000401CA06308E0A3
:10208000A06B022188431043A063E06B1843E06318
:1020900001263046F8BDA06B1043A063F8E70000AE
:1020A0001902FEFFE7FF3F8370B586B00646142194
:1020B0006846FEF757FA2149306888423BD12049EB
:1020C0008A69401502438A618A69024005924A6919
:1020D000000202434A614A69024005924A6940008F
:1020E00002434A614969032401400591FE2000250D
:1020F0006A4631C209206946C00600F039F90094E9
:10210000694610480295019400F032F90E480F4CD0
:1021100021C42560A5608020E560606020206561A5
:1021200020610A48083C00F0B1F8002801D0FFF710
:1021300015FE3463666206B070BD000000240140E5
:102140000010024000040048080002407401002012
:10215000F7B5044600680025806840073DD4264650
:102160002036307D01280AD001273775607E01288E
:1021700007D02046FFF71EFC050002D02EE002200B
:10218000FEBDA06B16490840FF2101310843A06342
:102190000020E0633075216B12488862216B124881
:1021A000C862216B1148086321681C200860206800
:1021B00041681022114341602068C1683943C16001
:1021C0002168206B4031029B019A00F089F8206859
:1021D000816804221143816000E002252846FEBD8B
:1021E000FEF1FFFF23190008A91900088F19000844
:1021F000F0B4C16B0D6801680C680422066C1346CC
:10220000B3402B420DD063070BD50B689B0602D45D
:102210000B6893430B60016C8A40C16B4A60C16AD2
:1022200019E00227B74002462F4001232032002F39
:1022300015D0A70713D50C68A40604D40C680A258A
:10224000AC430C605370036C02219940C36B59601E
:1022500000211170816A002916D0F0BC08470827B8
:10226000B7402F4210D024070ED50C680E25AC4382
:102270000C60046C1946A140C46B616083635370A9
:1022800000211170016BE6E7F0BC704770B50400E7
:1022900021D0022120462030054641702268116875
:1022A0000E48A3680140606826691843E368334319
:1022B000184363691843A3691843E3691843084343
:1022C00010602046FFF724FD0021A1630120687003
:1022D0002970084670BD012070BD00000FC0FFFFCF
:1022E000F8B504468C46203001780025012909D034
:1022F0000126067041780027012905D007700225C4
:102300002846F8BD0220F8BD02214170A76320686D
:10231000016849084900016061462046FFF70AFD4F
:10232000E06A00282068016802D00E22114306E00E
:102330000A22114301602068016804229143016070
:102340002068016831430160DAE7000070B5044697
:1023500000F0E6F80546601C02D004480078241816
:1023600000F0DEF8401BA042FAD370BD2000002030
:10237000F8B5002303240125BAE02E469E40B4465A
:1023800032407CD00E79B607B60F012E01D0022E56
:1023900017D186682746B6465E00B7400096764657
:1023A000BE43B646CF68009EB74076463743876047
:1023B00046686746BE430F79FF06FF0F9F403743CD
:1023C00047600E79F643B6070ED0C6682746B44676
:1023D0005E00B646B7406646BE43B4468F68764652
:1023E000B74066463743C7600E79B607B60F022E70
:1023F00014D1DE08B60036180096366A5F07B44678
:10240000FE0E0F27B646B7406646BE43B4460F6978
:102410007646B74066463743009E376206682746D1
:10242000B4465E00B646B7406646BE430F79B44632
:10243000BF07BF0F7646B7406646374307604E6812
:10244000B603B60F53D02D4FBE692E43BE61BE6991
:102450009F08F607F60F2A4EBF00BE190096B66811
:102460000F27B4469E07360FB646B7406646BE43B2
:102470000927FF06B446B84202D1002710E036E033
:10248000204FB84201D101270AE01F4FB84201D1C5
:10249000022705E01D4FB84201D1032700E00527C0
:1024A0007646B74066463743009EB760184E36689A
:1024B0004F689643FF0300D51643154F3E607E6874
:1024C0004F689643BF0300D51643114F7E60BE6828
:1024D0004F689643FF0200D516430D4FBE60FE685D
:1024E0004F689643BF0200D51643094AD6605B1C6D
:1024F0000A681646DE4000D03FE7F8BD00100240F3
:10250000000001400004004800080048000C00489A
:1025100000040140002A01D0816170478162704748
:1025200001488068704700002000002070B5024616
:1025300040325378202B1CD11378012B19D0012362
:10254000137024245470046825689D432560046832
:1025500025681E03B5432560046825680D43256082
:10256000006801681943016020205070002010703D
:1025700070BD022070BD70B5024640325378202BEA
:102580001BD11378012B18D001241470242353700D
:1025900003681D68A5431D6005682B680F26360279
:1025A000B3430902194329600068016821430160AF
:1025B000202050700020107070BD022070BD0000FF
:1025C00070B5040006D025464035687800260028FE
:1025D00002D005E0012070BD2E70204600F0D2F838
:1025E00024206870206801684908490001600F21B3
:1025F0006068090688432168086121688A680120AB
:10260000C00382438A60E1680129A16808D02122C1
:102610009202114322689160E168022902D005E02C
:102620000143F7E701212268C902516021684A6825
:102630000F4B1A434A602168CA688243CA606169C5
:1026400020690843A169090208432168C860216A1A
:10265000E06908432168086020680168012211438D
:1026600001606664202068702663AE70002070BD33
:1026700000800002FFB5054604464035687881B009
:10268000202878D12878012875D001202870FFF7FC
:1026900047FF0746012200901923D103204600F08E
:1026A0009FFD00283CD1212068701020A8700026D2
:1026B000666403986062049860856663618D2F4844
:1026C000FF2903D9FF22228500903BE0618D2185FF
:1026D00000903DE02046029900F06EFD16E000F00B
:1026E000CCFD00281CD1606A216800788862606A8D
:1026F000401C6062608D401E6085208D401E80B24F
:102700002085618D002901D000280CD0608D0A99A8
:1027100000283A462046E2D100F089FD00281CD06E
:10272000012005B0F0BD00970022802120460A9BC1
:1027300000F056FD0028F3D1608DFF2805D9FF2257
:102740002285009601231B06C4E7608D2085009634
:10275000208D0123C2B25B06BCE721682020C8613E
:1027600021684A68064B1A404A606870AE702E7045
:102770000020D6E7FFE70220D3E70000002000801A
:1027800000E800FE10B586B0044614216846FDF747
:10279000E9FE1249206888421DD1114C616901206F
:1027A000800401436161616901400591C02000908E
:1027B00012200121019003200291049103906946A7
:1027C0000848FFF7D5FDE169012040050143E161BB
:1027D000E1690140059106B010BD000000540040C1
:1027E00000100240000400480248816802788918FD
:1027F000816070472000002010B506480168102253
:1028000011430160002000F007F800F027F80020D5
:1028100010BD00000020024070B504460D4D7D2023
:102820002978C000FDF7A0FE01460B480068FDF7BF
:102830009BFE00F033FB002809D1042C07D20022B4
:102840002146401E00F02AF800206C6070BD012077
:1028500070BD0000200000202C00002008B50848B2
:102860008169012211438161816911400091C2692E
:1028700001040A43C261C0690840009008BD00001D
:1028800000100240002805DBC106C90E0120884067
:10289000014908607047000000E100E010B501F058
:1028A00091FA10BDF8B505460068354CC00352D505
:1028B000E0690026C00007D4E16920040143E1611A
:1028C000E1690140012600912E480168C90510D434
:1028D0000168821511430160FFF722FE074604E0FC
:1028E000FFF71EFEC01B642824D826480068C005D8
:1028F000F6D5206A03273F02384020D06968394066
:1029000081421CD0206A226AB843012109040A438B
:102910002262226A8A4322622062C0070FD0FFF738
:10292000FFFD009008E0FFF7FBFD0099411A1648F3
:10293000814201D90320F8BD206A8007F3D5206ABF
:102940006968B84308432062002E04D0E169012081
:1029500000078143E1612878C00705D0206BA96892
:1029600080088000084320632878800605D5206B06
:1029700010218843E968084320630020F8BD000067
:10298000001002400070004088130000F8B50F46A8
:10299000060059D03A4D2868C007C00FB84209D286
:1029A000286840084000384328602868C007C00FE6
:1029B000B84249D13068334C81070CD5400704D563
:1029C000606807210902084360606068F02188435D
:1029D000B168084360603078C00726D0706801286D
:1029E0000ED0216802280ED0890700292CDA6168F0
:1029F0008908890001436160FFF792FD00900DE0B6
:102A000021688903F1E78901EFE7FFF789FD009964
:102A1000411A1D48814201D90320F8BD60680C218C
:102A20000840716889008842EFD12868C007C00F4C
:102A3000B8420BD92868400840003843286028680D
:102A4000C007C00FB84201D00120F8BD3078400760
:102A500006D56068072109028843F1680843606071
:102A600000F018F86168094A0906090F515CC8406E
:102A7000074908600020FFF7CFFE0020F8BD0000E6
:102A80000020024000100240881300004C4A000859
:102A90002C00002010B514A30FCB88B06C460FC4D7
:102AA00015A30FCB0FC4184A51680C200B460340E6
:102AB0001648042B16D0082B14D18B021B0F6C4622
:102AC000E45CD26A04AB1207120F9A5CC90305D505
:102AD00000231946FDF786FB214601E020460C49FC
:102AE00001F041F908B010BD02030405060708090A
:102AF0000A0B0C0D0E0F1010010203040506070847
:102B0000090A0B0C0D0E0F100010024000127A0083
:102B100000093D00FEB5040070D02078DC4DC007F0
:102B20004AD068680007800F012807D0686800074E
:102B3000800F022809D16868C00306D52868800381
:102B40003AD560680028E7D036E06168012914D0E2
:102B500001208004002901D0052914D02A68012110
:102B600009048A432A602968814329606068002833
:102B700016D0FFF7D5FC06460EE0286801210904AF
:102B800008432860F2E7296801432960F5E7FFF769
:102B9000C7FC801B64286ED828688003F7D50BE03B
:102BA000FFF7BEFC064604E0FFF7BAFC801B642872
:102BB000F1D828688003F7D4207801268007002800
:102BC0003CDA68680007800F07D068680007800F4C
:102BD000022809D16868C00306D42868800716D582
:102BE000E06801280AD112E0E0680028286816D0C1
:102BF00030432860FFF794FC074605E043E1FFF708
:102C00008FFCC01B0228C6D828688007F7D5286823
:102C1000F82188432169C900084328600EE0400874
:102C200040002860FFF77CFC074604E0FFF778FCD3
:102C3000C01B0228AFD828688007F7D42078000787
:102C400022D5E0690028686A0ED030436862FFF739
:102C500067FC074604E0FFF763FCC01B02289AD814
:102C6000686A8007F7D50FE0400840006862FFF708
:102C700057FC074605E09DE0FFF752FCC01B022809
:102C800089D8686A8007F7D420780427400700288D
:102C900060DA00200190E869C00008D4E969B8064C
:102CA0000143E961E96901400120009101907948FF
:102CB0000168C90511D40168821511430160FFF74D
:102CC0002FFC009005E0FFF72BFC0099401A6428C8
:102CD00070D870480068C005F5D5A06801280AD0F2
:102CE000002801D0052810D0286A4008400028623A
:102CF000286AB84301E0286A30432862A0680028A7
:102D000012D0FFF70DFC00900AE0286A38432862D1
:102D1000F1E7FFF705FC0099411A5F48814249D865
:102D2000286A8007F5D50DE0FFF7FAFB009006E072
:102D3000FFF7F6FB0099411A574881423AD8286AB2
:102D40008007F5D40198002804D0E9690120000724
:102D50008143E9612078C00635D5606901280CD02F
:102D6000401D686B23D038436863686B400840009F
:102D70006863FFF7D5FB064622E0686B384368635B
:102D8000686B30436863FFF7CBFB064604E0FFF750
:102D9000C7FB801B02285BD8686B8007F7D5686B80
:102DA000F8218843A169C900084368630BE0B84370
:102DB0006863F4E74CE0FFF7B3FB801B022847D8B9
:102DC000686B8007F7D4206A00285ED0696809071D
:102DD000890F022942D0012636060228286805D02C
:102DE000B0432860FFF79CFB044633E0B043286003
:102DF000FFF796FB074604E0FFF792FBC01B022893
:102E000026D828688001F7D4E86AE16A0009000141
:102E10000843E862616AA06A084369683D221204B7
:102E2000914308436860286830432860FFF778FBC7
:102E3000044604E0FFF774FB001B022808D828684A
:102E40008001F7D521E0FFF76BFB001B022801D9B9
:102E50000320FEBD28688001F5D416E00128F8D0D3
:102E60006868E96A01221204636A02409A420AD140
:102E70000907E26A090F914205D10F218904084030
:102E8000A16A884201D00120FEBD0020FEBD0000E5
:102E9000001002400070004088130000094910B57E
:102EA000401E884201D9012010BD074C60610321FA
:102EB000081F00F087FF0020A0610720206100208C
:102EC00010BD0000FFFFFF0000E000E0704770470A
:102ED00070B5040005D025462035687F002802D053
:102EE00006E0012070BD00202877204600F014F88D
:102EF00002206877211D206800F066FD0120403423
:102F0000A071A877E87720706070A070E0702071E1
:102F100060716877002070BD08B500680A49884272
:102F200010D10A488269012149040A4382618069FB
:102F300000220840009011461520FFF7AFFC152035
:102F4000FFF7A0FC08BD0000004401400010024053
:102F5000014620314A7F012A01D001207047022218
:102F60004A770268D36801210B43D3600068094A9D
:102F7000904205D0084A904202D0084A904204D1BB
:102F800082685207520F062A02D002680A43026082
:102F900000207047002C0140000400400040014028
:102FA000704770B50446006801690025C943890768
:102FB000002915DBC168C943890711D4E91E0161E5
:102FC00001202077206880698007204602D0FFF723
:102FD000E7FF04E000F096F8204600F094F825772B
:102FE00020680169C943490717D4C168C943490723
:102FF00013D40421C943016102202077206880692D
:103000008005800F204602D0FFF7CAFF04E000F0E1
:1030100079F8204600F077F8257720680169C943E0
:10302000090716D4C168C943090712D40821C94346
:103030000161042020772068C0698007204602D003
:10304000FFF7AEFF04E000F05DF8204600F05BF80B
:10305000257720680169C943C90617D4C168C943E7
:10306000C90613D41021C9430161082020772068C4
:10307000C0698005800F204602D0FFF791FF04E071
:1030800000F040F8204600F03EF8257720680169FE
:10309000C943C90708D1C168C943C90704D1891EFA
:1030A0000161204600F030F820680169C943090633
:1030B00009D4C168C943090605D48021C943016107
:1030C0002046FFF703FF20680169C943490609D478
:1030D000C168C943490605D44021C943016120465E
:1030E00000F013F820680169C943890609D4C16852
:1030F000C943890605D42021C94301612046FFF751
:10310000E6FE70BD7047704770477047FEE7016884
:103110008A69D243920701D400228A6200688169D9
:10312000C943C90703D081690122114381617047F6
:10313000F7B5044600680F468169C943C90636D40D
:103140004168890104D4416801229203114341601E
:1031500000262546403520688069C043800612D588
:10316000781CF8D0FFF7DCF90299401AB84201D870
:10317000002FF0D1616C2020014361646870AE7053
:103180002E700120FEBD21681020C8612068202714
:10319000C7612046FFF7BBFF20684168054A114020
:1031A0004160606C0421084360646F70E7E70020B1
:1031B000FEBD000000E800FEF0B50668059C7568DD
:1031C000064F600D384385438805800D1104084380
:1031D0001843204305437560F0BD0000FF63FF0303
:1031E000F8B51D4617460E46044609E0681C07D090
:1031F000FFF796F90699401AA8420BD8002D09D07E
:1032000020688169304688430FD00020B842EDD055
:103210000020F8BD616C202001436164403460707F
:103220000020A07020700120F8BD0120EEE770B5ED
:1032300016460D4604460FE0324629462046FFF763
:1032400077FF002801D0012070BDFFF769F9801BCE
:10325000A84208D8002D06D020688069C0438006A7
:10326000EAD4002070BD616C2020014361644034C9
:1032700060700020A0702070E5E770B516460D461E
:10328000044611E0324629462046FFF751FF002848
:1032900001D0012070BD681C06D0FFF741F9801BEA
:1032A000A84208D8002D06D020688069C043800756
:1032B000E8D4002070BD616C20200143616440347B
:1032C00060700020A0702070E3E700001CB50022B1
:1032D00001926A461071517164200090022301AA84
:1032E00078210248FFF7C6F91CBD0000E00000206D
:1032F0003EB500213F48009101913D4A0291026094
:103300004160102282600346012404250C3332C33D
:10331000017641768476FF22C176C232C2610162B3
:10332000014620310C718462FEF702FE002801D0B4
:1033300072B6FEE70120000300940190072469465D
:103340002C480294FEF768FD002801D072B6FEE713
:103350000220009069462748FEF75EFD002801D054
:1033600072B6FEE70320009069462248FEF754FD3E
:10337000002801D072B6FEE769461E480095FEF7A8
:103380004BFD002801D072B6FEE70520009069468B
:103390001848FEF741FD002801D072B6FEE706206E
:1033A000009069461348FEF737FD002801D072B639
:1033B000FEE769460F480094FEF72EFD002801D075
:1033C00072B6FEE70820009069460A48FEF724FD21
:1033D000002801D072B6FEE7092000906946054832
:1033E000FEF71AFD002801D072B6FEE73EBD0000D0
:1033F00000240140A0000020F0B587B014216846E9
:10340000FDF7B0F82D484269012149040A434261A1
:1034100042690A400592426949000A434261406993
:1034200019260840F6020590002231462448FFF78D
:1034300071F803273F03012239462148FFF76AF854
:10344000FF21092000220131C006FFF763F83C206C
:10345000002401256A4631C269461948FEF788FFF3
:10346000A80200900194694602941548FEF780FF77
:10347000029469461248009601950394FEF778FF7E
:103480000320039069460097019502940C48FEF7CB
:103490006FFF280200900920029469460195039469
:1034A000C006FEF765FFE8026A4631C20920694698
:1034B000C006FEF75DFF07B0F0BD0000001002403F
:1034C0000004004810B513481149016012494160D9
:1034D000002181600161416181610122C161C2609D
:1034E0000162FFF76DF8002801D072B6FEE70021F7
:1034F0000848FFF71BF8002801D072B6FEE700214C
:103500000448FFF738F8002801D072B6FEE710BD76
:1035100000540040E00000200B020000FEE770B500
:10352000064600242046B030C0B200F091FA0020D8
:1035300000F08EFA102000F08BFA0025304600F0E3
:103540008DFA6D1CEDB2802DF8D3641CE4B2082C0A
:10355000E8D370BD10B56420FEF7F8FEAE2000F091
:1035600077FA202000F074FA102000F071FAB020F1
:1035700000F06EFAC02000F06BFA002000F068FA4C
:10358000102000F065FA402000F062FA812000F07F
:103590005FFAFF2000F05CFAA02000F059FAA620A4
:1035A00000F056FAA82000F053FA3F2000F050FA3D
:1035B000A42000F04DFAD32000F04AFA002000F0D9
:1035C00047FAD52000F044FAF02000F041FAD92063
:1035D00000F03EFA222000F03BFADA2000F038FA40
:1035E000122000F035FADB2000F032FA202000F043
:1035F0002FFA8D2000F02CFA142000F029FAAF20C9
:1036000000F026FA10BD10B50446B031C8B200F083
:103610001FFA2009103000F01BFA2007000F0121CB
:10362000084300F015FA10BDFFB5002581B004462F
:10363000012B1FD0022B21D14FE02038C7B27E2CA6
:1036400004D902980024401CC0B20290204602997E
:10365000FFF7D9FF06204743224800263F18B85DF0
:1036600000F0FCF9761CF6B2062EF8D3A41D6D1CF2
:10367000E4B2EDB20398405D0028DED105B0F0BDA4
:103680002038C7B2782C04D902980024401CC0B25C
:10369000029020460299FFF7B6FF00263F0112482C
:1036A000B919405C00F0DAF9761CF6B2082EF6D3B0
:1036B0000298401CC1B22046FFF7A5FF00260A4829
:1036C000B9190818007A00F0C9F9761CF6B2082E6C
:1036D000F5D308346D1CE4B2EDB20398405D0028C8
:1036E000CED1CBE7244200084C44000870470000CC
:1036F000F8B507460A48154600780E46002801D15D
:1037000000F0B2F9EFF31084012080F310882A460C
:103710003146384600F006F8E1B281F31088F8BD72
:10372000B801002070B50E461821484313491446CD
:103730004518E86A1835002804D001280FD002285F
:1037400005D113E0284600F0C5F9A04201D20024BB
:1037500011E022463146284600F0E7FA0BE0284601
:1037600000F0B8F9A042F4D20446F2E73146284608
:1037700000F0ABFA0446204670BD0000B8010020FE
:103780000FB408B504A900916A46039900F004F843
:1037900001B008BC04B01847F7B598B007A802906C
:1037A000402000250495039018980C460595069036
:1037B0002178641C002977D0252907D002A800F0C1
:1037C00065FA05980028F3DA1BB0F0BD012200214C
:1037D000022713460826207823281BD02B2816D032
:1037E0002D2802D0302806D101E0194300E03943EA
:1037F000641C002AEFD1002220780346303B0A2BBC
:103800000AD20A235A431218303A641CF4E70420FF
:103810000143EDE73143EBE70023C7B22E2F0AD176
:10382000641C20780746303F0A2F04D20A277B43C6
:103830001B18303BF4E76C280DD068280BD070289B
:1038400052D00BDC25285AD058282ED063280CD013
:10385000642858D110E06078641CECE7732832D0FB
:10386000752817D078284ED11FE01A981A9A006848
:10387000011D1160017843E01A981A9F0068061D27
:103880003E6000680191009201460A2202A800F001
:103890002CF938E01A981A9F0068061D3E600068EF
:1038A000009201910A2209E02FE01A981A9F0068FD
:1038B000061D3E600068009201911022014602A898
:1038C00000F078F91FE01A981A9A0068011D11603B
:1038D00006683178761C002915D002A800F0D6F9C8
:1038E00005980028F5DA0EE01A981A9A006808235D
:1038F000011D11600168102200960195DFE7252166
:1039000002A800F0C3F9641C5BE70598002800DCFE
:103910005AE70498002804D0024607A91898FFF730
:10392000E7FE04990598401805904DE7704710B5DB
:10393000FEF75AFF10BD30B595B030216846FCF750
:1039400011FE00240F94122000900D940120129477
:103950000390059010200E941094139404900690F8
:103960000520C0040C9402250A901194089509942E
:103970000B946846FFF7CEF8002801D072B6FEE738
:1039800007200C900E9401210D950F940CA8FEF7C2
:10399000FDFF002801D072B6FEE72020109013949E
:1039A00010A8FEF77FFF002801D072B6FEE715B021
:1039B00030BD704710B500F0D3FB0248FFF7F1FAB5
:1039C00010BD00002C010020F0B502681A4B1B4C02
:1039D000984201D0A04203D17025AA434D682A43E2
:1039E000174D184E184F98420AD0A04208D0174CD5
:1039F000A04205D0A84203D0B04201D0B84205D1C0
:103A00001446032212029443CA6822438024A2432C
:103A10004C69224302608A68C2620A6882629842E4
:103A200005D0A84203D0B04201D0B84201D1096903
:103A3000016301214161F0BD002C01400004004000
:103A40000040014000440140004801400020004087
:103A500010B501460020FFF739FC10BD10B5014636
:103A60004020FFF733FC10BD10B5124C032020613D
:103A7000606111A0A0612046A830E06101208002B1
:103A800020620020A06260620BA12166E0620D4905
:103A9000616610212067A166E06660670AA1E01DEB
:103AA000FCF7C6FC09A12046FCF7C2FC2020A0714F
:103AB00010BD0000B80100205465726D696E616C24
:103AC0000000000060060020525454005345474750
:103AD000455200000269C1688A4203D88068401AD2
:103AE000801800E0501A401E7047FFB583B00E46A4
:103AF00070420D9F0C9C0090002900DB08460125B8
:103B000002E0FCF73BFD6D1C05998842F9DA069846
:103B1000A84200D90546002C04D0002E01DB78070E
:103B200000D5641EB80702D50698002810D0F80703
:103B30000ED1002C0CD0A5420AD22021641E03987D
:103B400000F0A4F80398C0680028F2DA07B0F0BDCE
:103B50000398C0680028F9DB002E02DA2D21009EB0
:103B600002E0780707D52B21039800F08FF803981F
:103B7000C0680028EADBB807800F022810D1069839
:103B800000280DD1002C0BD0A54209D23021641E93
:103B9000039800F07BF80398C0680028F2DAD5E7B4
:103BA000019700943146069B059A039800F002F8AD
:103BB000CCE70000FFB581B001261F4634460A9DC0
:103BC000029802E0FCF7D0FC641C03998842F9D209
:103BD000A74200D93C460B98C00718D1002D16D03B
:103BE0000B98800701D5002F02D0202000900CE018
:103BF0003020FBE76D1E0099019800F047F801980E
:103C0000C06800283DDB002D01D0AC42F2D3019802
:103C1000C068002835DB012F01D97F1E06E0314640
:103C20000298FCF7A1FC0399884202D3039846430B
:103C3000F1E7154F31460298FCF796FC0146029ACF
:103C40007143511A0291395C019800F01FF80198F4
:103C5000C068002805DB30460399FCF785FC0600A8
:103C6000E8D10B98C0070CD0002D0AD0AC4208D286
:103C700020216D1E019800F009F80198C068002805
:103C8000F2DA05B0F0BD00003C4A000810B5044669
:103C900080686368421C934205D323681954A2606C
:103CA000E068401CE060A2686068824209D1216837
:103CB0002069FFF71DFDA168884203D00020C043A2
:103CC000E06010BD0020A06010BDF7B5064682B0D0
:103CD00000200090F46817463069A04201D9051B06
:103CE00002E0B168201A0D1AB0686D1E001BA842D0
:103CF00000D80546BD4200D33D4670682A460019EB
:103D00000399FCF7C7FB00987F1B401900900398AC
:103D1000641940190390B068A04200D10024F460F7
:103D2000002FD9D1009805B0F0BDF7B50446C7689B
:103D30008068E168C51B606816464018B54205D921
:103D40000199FCF7A7FBB819E060FEBD2A4601996E
:103D5000FCF7A0FB0198761B411932466068FCF71E
:103D600099FBE660FEBDF8B5040C8BB2264682B224
:103D70005E430D0C1046370C584336048019002161
:103D8000794116466E43370C360480197941264630
:103D90006E438919F8BD00004900CA0202431000B1
:103DA00000D004204A0D01D001221043044A490DDD
:103DB000914201D102210843012800D1052070471A
:103DC000FF0700008307FF22DB0E9A408907090ED8
:103DD0009940002808DB830809489B001B181868D5
:103DE00090430843186070470007000F08388308A5
:103DF00004489B001B18D86990430843D86170475A
:103E000000E400E000ED00E030380A2801D2012093
:103E10007047002070470000024610B50020074B95
:103E20000146CC000C19A4181C5D491C201805295A
:103E3000F7DB0521FCF7A2FBC0B210BD300000206B
:103E400010B5FFF787FB0020FFF769FB10BD0000EE
:103E500008B5FEF7D1FCFFF76EFD6420FEF776FA99
:103E60004EA10020FFF78CFCFFF7C6FA4F484169CE
:103E700001263143416140690022304000901146E3
:103E80000920FEF70BFD0920FEF7FCFCFFF730FAD6
:103E9000FFF718FB4748464901602F214160002188
:103EA0008160454A0161C260416180218161FFF703
:103EB0000FF8002801D072B6FEE7FFF7C1FF3D48BA
:103EC0008C38FDF74DFF012803D13CA10020FFF7FE
:103ED00057FC38492D22FC3908467030FEF738F976
:103EE000FF2409250134ED067D27FF000FE00122A4
:103EF00021462846FEF70EFB1420FEF727FA002283
:103F000021462846FEF706FB3846FEF71FFAFDF766
:103F10001DFE0128EBD02FA10020FFF731FC01226C
:103F200021462846FEF7F6FA6420FEF70FFA002233
:103F300021462846FEF7EEFAFDF784FD7A20FDF7CC
:103F40002DFEFDF74EFE2848FDF73EFE2648401D9B
:103F5000FDF72DFE174880220A21CF38FCF7DBFA47
:103F60002148083806701348FEF7F2FF114CAF3CA9
:103F70000820FFF751FF002100F0AEF8607800281C
:103F800002D0002100F078F8A078002802D00021AB
:103F900000F02CF83220FEF7D9F9E9E7626F617280
:103FA0006420696E69740D0A000000000010024070
:103FB000004401402C010020102700004144432010
:103FC00043616C6962726174696F6E206572726FB1
:103FD000720D0A0063693234723120746573742083
:103FE000737563630D0A00000800002010B50446D5
:103FF0001D48C278944201D1002933D0C4701A48B8
:104000000821001DFCF7ACFAE00701D017A104E07D
:10401000A00701D516A100E016A11348001DFCF76A
:104020002DFA600701D511A104E0200701D510A1E8
:1040300000E010A10C48001DFCF720FAE00601D5B5
:104040000AA104E0A00601D509A100E009A10648E3
:10405000001DFCF713FA044A0223121D0621482012
:10406000FFF7E2FA10BD000012000020750000000A
:104070006E0000002D0000001CB512494A78821A1B
:10408000921C042A1DD94870FCF7B6FD0E49FCF7B6
:10409000D7FC04460B480821001DFCF761FA2046B6
:1040A000FCF7A4FC00900748019108A20821001D1C
:1040B000FCF71AF9034A0223121D04210020FFF71E
:1040C000B3FA1CBD120000200000204152583A25CE
:1040D0002E316656200000001CB51A490A78821A53
:1040E000921C042A2CD90870FCF786FD0721C943CD
:1040F000FCF786FDFCF77AFC134A144BFCF722FB15
:104100000122FCF743FCFCF7DFFA04460D480821C6
:10411000001DFCF725FA0E492046FCF791FCFCF740
:1041200065FC0090074801910AA20821001DFCF7D8
:10413000DBF8044A00210223121D0846FFF774FA37
:104140001CBD0000120000206666666666A6404040
:104150000000204154583A252E3166562020200078
:1041600070B5FEF7DDF91E4A5168411A00D5494283
:10417000142933DD5060107800282FD00020FFF77D
:104180004BFE184C20700120FFF746FE60700220A5
:10419000FFF742FEFF25281AA0700320FFF73CFE20
:1041A000281AE0700520FFF737FE20710420FFF782
:1041B00033FE281A60710720FFF72EFE281AA0711F
:1041C0000620FFF729FEE07108212046FDF714FDC7
:1041D00003492046491C2030FDF75EFC70BD0000FD
:1041E000000000205D00002010B500290AD00878EA
:1041F000002807D005487844FDF748FB002801D087
:10420000002010BD0248784410BD00005A0900008B
:104210005209000003B402487844844603BC604756
:10422000C7CBFFFF0000000000000000002F0000CF
:1042300000000700070000147F147F1400242A7F69
:104240002A120062640813230036495522500000E8
:104250000503000000001C224100000041221C0058
:104260000014083E08140008083E0808000000A0DA
:1042700060000008080808080000606000000020D6
:1042800010080402003E5149453E0000427F4000B4
:10429000004261514946002141454B31001814123A
:1042A0007F10002745454539003C4A494930000107
:1042B0007109050300364949493600064949291E56
:1042C00000003636000000005636000000081422B8
:1042D00041000014141414140000412214080002B8
:1042E0000151090600324959513E007C1211127CDD
:1042F000007F49494936003E41414122007F41410A
:10430000221C007F49494941007F09090901003EFB
:104310004149497A007F0808087F0000417F410039
:10432000002040413F01007F08142241007F4040AF
:104330004040007F020C027F007F0408107F003E97
:104340004141413E007F09090906003E4151215E7D
:10435000007F091929460046494949310001017F7A
:104360000101003F4040403F001F2040201F003F10
:104370004038403F006314081463000708700807C2
:1043800000615149454300007F41410000552A55D5
:104390002A55000041417F00000402010204004050
:1043A0004040404000000102040000205454547872
:1043B000007F484444380038444444200038444492
:1043C000487F00385454541800087E090102001830
:1043D000A4A4A47C007F080404780000447D40006D
:1043E000004080847D00007F102844000000417F51
:1043F0004000007C04180478007C0804047800382D
:104400004444443800FC242424180018242418FCB4
:10441000007C0804040800485454542000043F441D
:104420004020003C4040207C001C2040201C003CE0
:104430004030403C004428102844001CA0A0A07C30
:10444000004464544C441414141414140000000068
:10445000000000000000000000000000000000F864
:1044600000000000000000333000000000100C06C7
:10447000100C0600000000000000000040C0784062
:10448000C0784000043F04043F040400007088FC2E
:1044900008300000001820FF211E0000F008F00086
:1044A000E018000000211C031E211E0000F00888F7
:1044B000700000001E2123241927211010160E0061
:1044C000000000000000000000000000000000E00C
:1044D0001804020000000007182040000002041821
:1044E000E00000000040201807000000404080F07D
:1044F000804040000202010F01020200000000F0B3
:10450000000000000101011F010101000000000086
:104510000000000080B070000000000000000000FB
:104520000000000000010101010101010000000084
:10453000000000000030300000000000000000001B
:1045400080601804006018060100000000E01008F8
:104550000810E000000F102020100F00001010F8CD
:10456000000000000020203F20200000007008080C
:10457000088870000030282422213000003008888C
:10458000884830000018202020110E000000C020B4
:1045900010F8000000070424243F240000F80888D5
:1045A000880808000019212020110E0000E0108862
:1045B00088180000000F112020110E000038080894
:1045C000C83808000000003F0000000000708808A4
:1045D00008887000001C222121221C0000E0100825
:1045E0000810E0000000312222110F00000000C07E
:1045F000C00000000000003030000000000000801B
:10460000000000000000806000000000000080400A
:104610002010080000010204081020004040404023
:104620004040400004040404040404000008102076
:1046300040800000002010080402010000704808BB
:104640000808F0000000003036010000C030C82823
:10465000E810E0000718272423140B000000C038DE
:10466000E0000000203C23020227382008F8888858
:1046700088700000203F202020110E00C030080864
:1046800008083800071820202010080008F808083B
:104690000810E000203F202020100F0008F8888834
:1046A000E8081000203F20202320180008F8888800
:1046B000E8081000203F200003000000C030080878
:1046C0000838000007182020221E020008F8080001
:1046D0000008F808203F210101213F20000808F8C8
:1046E000080800000020203F2020000000000808EB
:1046F000F8080800C08080807F00000008F888C0AB
:1047000028180800203F20012638200008F808005B
:1047100000000000203F20202020300008F8F80092
:10472000F8F80800203F003F003F200008F830C0A4
:104730000008F808203F200007183F00E010080894
:104740000810E0000F10202020100F0008F80808C3
:104750000808F000203F210101010000E0100808D6
:104760000810E0000F18242438504F0008F88888FB
:1047700088887000203F2000030C302000708808DB
:10478000080838000038202121221C00180808F8E9
:10479000080818000000203F2000000008F808006A
:1047A0000008F808001F202020201F00087888003B
:1047B00000C83808000007380E010000F80800F8AB
:1047C0000008F800033C0700073C03000818688055
:1047D0008068180820302C03032C30200838C800CB
:1047E000C83808000000203F20000000100808081A
:1047F000C83808002038262120201800000000FEBC
:10480000020202000000007F40404000000C30C067
:1048100000000000000000010638C0000002020293
:10482000FE000000004040407F0000000000040245
:104830000202040000000000000000000000000070
:104840000000000080808080808080800002020460
:104850000000000000000000000000000000808058
:10486000808000000019242222223F2008F80080C6
:1048700080000000003F112020110E000000008089
:1048800080800000000E1120202011000000008018
:104890008088F800000E112020103F20000080804A
:1048A00080800000001F222222221300008080F05E
:1048B000888888180020203F202000000000808089
:1048C00080808000006B94949493600008F80080CE
:1048D00080800000203F210000203F200080989829
:1048E000000000000020203F202000000000008089
:1048F0009898000000C08080807F000008F80000C9
:1049000080808000203F24022D302000000808F81D
:10491000000000000020203F2020000080808080D8
:1049200080808000203F20003F20003F808000806A
:1049300080800000203F210000203F200000808078
:1049400080800000001F202020201F008080008029
:104950008000000080FFA12020110E0000000080D8
:1049600080808000000E112020A0FF8080808000C9
:104970008080800020203F212000010000008080F6
:10498000808080000033242424241900008080E0EB
:10499000808000000000001F2020000080800000B8
:1049A00000808000001F202020103F208080800099
:1049B0000080808000010E300806010080800080A9
:1049C000008080800F300C030C300F0000808000CE
:1049D000808080000020312E0E31200080808000F9
:1049E0000080808080818E701806010000808080A9
:1049F000808080000021302C222130000000000047
:104A0000807C020200000000003F404000000000E7
:104A1000FF00000000000000FF0000000002027C18
:104A2000800000000040403F00000000000601013F
:104A300002020404000000000000000030313233A4
:104A4000343536373839414243444546000000008A
:104A50000000000001020304060708098182838424
:104A600085868788898B8C8D8E8F9192939596976A
:104A7000999A9C9D9FA0A2A3A5A7A8AAACAEB0B2EC
:104A8000B3B5B7B9BCBEC0C2C5C7C9CCCED1D4D7E7
:104A9000D9DCDFE2E6E9ECF0F3F7FAFE02400000D1
:104AA000000000A00000000005400000000000C859
:104AB000000000000C4000000000409C00000000CE
:104AC000194000000020BCBE00000000344000007F
:104AD000BFC91B8E00000004B5400000504BCFD072
:104AE0006607E2CF010000006C4100003E8251AA3F
:104AF000DFEEA73401000000D9420000DCB5A0E2DF
:104B00003A301F97FFFFFFFFB4450000FD25A0C806
:104B1000E9A3C14FFFFFFFFFFF3F0000000000803F
:104B200000000000FF3F00000000008000000000C7
:104B30006C4B00080000002030000000F800000866
:104B40009C4B000830000020A00A0000140100085F
:104B50001C00000043000000F8FFFFFF0C000000F5
:104B60000E0000000F0000002E00000000000000FA
:104B70000000000034431010013443101001FFFF07
:104B8000FFFF000000000000000000000100000026
:0C4B9000040000000000000000127A0089
:04000005080000B53A
:00000001FF
