:020000040800F2
:10000000E80B002091010008652A0008FB26000883
:1000100000000000000000000000000000000000E0
:10002000000000000000000000000000A52C0008F7
:100030000000000000000000672A00087D2D000875
:10004000A301000800000000A3010008A3010008AC
:10005000A3010008A3010008A3010008A3010008F0
:1000600000000000690D0008A3010008A3010008BA
:10007000A3010008A3010008A3010008000000007C
:10008000A3010008A301000800000000A30100086C
:10009000A3010008FD2D00081D2E0008A301000883
:1000A000A3010008A3010008A3010008F934000817
:1000B000A301000800F002F800F03EF80CA030C8E0
:1000C000083824182D18A246671EAB4654465D46D4
:1000D000AC4201D100F030F87E460F3E0FCCB64660
:1000E0000126334200D0FB1AA246AB4633431847E1
:1000F000503E0000703E0000103A02D378C878C12C
:10010000FAD8520701D330C830C101D504680C6059
:10011000704700000023002400250026103A01D378
:1001200078C1FBD8520700D330C100D50B607047AF
:100130001FB51FBD10B510BD00F002FC1146FFF742
:10014000F7FF03F077FC00F01AFC03B4FFF7F2FFAF
:1001500003BC00F021FC000070B505460C461646B5
:1001600002E00FCC0FC5103E102EFAD2082E02D39B
:1001700003CC03C5083E042E07D301CC01C5361FAE
:1001800003E021782970641C6D1C761EF9D270BDC5
:100190000748804707480047FEE7FEE7FEE7FEE71F
:1001A000FEE7FEE704480549034A054B7047000097
:1001B000F92D0008B5000008E8070020E80B002032
:1001C000E8070020FEB5054610460C46184373D0DC
:1001D000AE468C460020AD1A01469C4167D3664668
:1001E000002701243D46B61A9D4102D313463A46E4
:1001F0002124654676462F04360C3E432D0CB61A54
:100200009D4104D3150C1B042B4312041034654686
:1002100076462F06360A3E432D0AB61A9D4104D370
:10022000150E1B022B4312020834654676462F0733
:1002300036093E432D09B61A9D4104D3150F1B0103
:100240002B431201241D65467646AF07B6083E4390
:10025000AD08B61A9D4104D3950F9B002B43920025
:10026000A41C65467646EF0776083E436D08B61A2D
:100270009D411AD392185B41641C16E00018764623
:1002800065464941B71A9D410191009009D36046E6
:10029000B11A98418E468446009801990025401C69
:1002A0006941DD0752082A435B08641EE6D57246A1
:1002B000634603B0F0BDFFE700200146C046C046DC
:1002C0002A462346F5E70000034670B502460B4375
:1002D0009B070FD10E4CE60100E008C208C91D1BA8
:1002E0009D433542F9D0D9B21170521C00290DD06E
:1002F0001B0AF8E70B78491C1370521C002B05D021
:100300000B78491C1370521C002BF3D170BD0000F8
:1003100001010101F8B5042A2CD3830712D00B7810
:10032000491C0370401C521E83070BD00B78491CDC
:100330000370401C521E830704D00B78491C0370C5
:10034000401C521E8B079B0F05D0C91ADF002023CB
:10035000DE1B08C90AE0FFF7FFFEF8BD1D4608C90D
:10036000FD401C46B4402C4310C0121F042AF5D295
:10037000F308C91A521EF0D40B78491C0370401CB4
:10038000521EEAD40B78491C0370401C012AE4D4A5
:1003900009780170F8BD01E004C0091F0429FBD2EF
:1003A0008B0701D50280801CC90700D002707047FE
:1003B00000290BD0C30702D00270401C491E02293D
:1003C00004D3830702D50280801C891EE3E7002244
:1003D000EEE70022DFE7002203098B422CD3030A59
:1003E0008B4211D300239C464EE003460B433CD482
:1003F000002243088B4231D303098B421CD3030AEA
:100400008B4201D394463FE0C3098B4201D3CB0119
:10041000C01A524183098B4201D38B01C01A524149
:1004200043098B4201D34B01C01A524103098B424D
:1004300001D30B01C01A5241C3088B4201D3CB0038
:10044000C01A524183088B4201D38B00C01A52411B
:1004500043088B4201D34B00C01A5241411A00D2CB
:1004600001465241104670475DE0CA0F00D0494234
:10047000031000D34042534000229C4603098B42A4
:100480002DD3030A8B4212D3FC22890112BA030A2C
:100490008B420CD3890192118B4208D389019211AE
:1004A0008B4204D389013AD0921100E08909C30933
:1004B0008B4201D3CB01C01A524183098B4201D335
:1004C0008B01C01A524143098B4201D34B01C01A20
:1004D000524103098B4201D30B01C01A5241C30898
:1004E0008B4201D3CB00C01A524183088B4201D307
:1004F0008B00C01A5241D9D243088B4201D34B0022
:10050000C01A5241411A00D20146634652415B1063
:10051000104601D34042002B00D549427047634644
:100520005B1000D3404201B50020C046C04602BD6A
:1005300070477047704700000246C80FC0078143EC
:100540004B0030B54B405B009B0D20D01923DB06E0
:10055000C91801231B05994220DB0324A4070425A5
:100560001346AB400BD3002B04D1EB0613409B008A
:10057000E34204D401246407002312195941FF23E4
:100580001B0599420BD2C9000143500F09E0CB0271
:1005900004D501430803024305D0054830BDFF21BF
:1005A000C905084330BD084607210905884330BD09
:1005B0000000C07FF0B58B4C0F09254689B0BD43C4
:1005C0007BD01D092646AE43FAD00E465E4027403A
:1005D000F60F3E43254071D024012142FBD0FF2479
:1005E000AD19A4042D1B039501252D05DB02DB0AA3
:1005F000C9022B43C90A29431E010901040F130F25
:10060000050121431701880B820391432D098C4674
:10061000A90B1E438A039543B30B9A0396433F09E4
:10062000BA0B9403A74302962E467E430497B64620
:100630004E19D7190C460196544305977E43371B34
:100640007646BF1B3601B646BE0B36190096764677
:10065000BC043719009C01D3641C00946400002F73
:1006600001D001263443029E049F754366467E43B3
:100670000496760034196E0034190094029C019E91
:100680001C196643751BAE46069465464519059CC4
:1006900005956C43594375460891691A0191049E6A
:1006A00001465143A41B0491611A009C0791E10685
:1006B00005D061090122114302E072E06EE0610998
:1006C000089D00272C0A2D066918049D7C412A0AE2
:1006D0002D066918019D6241AC0DAD026D185441A3
:1006E000079A910D920255196141029A6446584346
:1006F0005443069B059A5A43121A131B9A0E9B01E8
:100700005B187A41010B0005C3185141220A2006EB
:1007100044195A419A4200D2491C012040028142A8
:1007200003D315230226F64302E014230326F643DF
:100730002020C51AA9401746AF40DA400A43204698
:100740000399D8400914731819055118039A3843AE
:10075000D2075140AC4009D00122944006D3002278
:10076000401C5141002C01D1400840001E4A9342D8
:1007700012D3012203989206904207DB052040071E
:1007800009181A480143C012414004E00320400701
:100790000818C10FC907002009B0F0BD0020F107FB
:1007A000FAE705180C464C4111486D42A04115D39B
:1007B00094181A465A410E48644290410ED30120C3
:1007C0004A004005824209D35A00824206D359406A
:1007D000C90F084AC90700201143DDE70020064978
:1007E000DAE700000000FF07FE070000FFFFFF7FC1
:1007F0000000E0FF0000F07F0000F87F0121C90544
:100800000123411842001B06D3185B0E0AD0C11009
:100810000722D206891840075242D14201D5520020
:1008200089187047090208D50146002A03D0C10F74
:10083000C9070020704710467047420202D00020CE
:1008400002497047072109050143F4E70000F87FDA
:1008500010B501469E240002CA15A307002A02D043
:100860001843002A04DBA21A002A0CDDD04010BD78
:100870001206120E01D140004008A21A03D4D04043
:1008800040420028F3DDFF2248001206904201D9C1
:10089000002010BDC817C043584010BD1F22030CD4
:1008A00002D10F2200041CD0030E01D10002083A2D
:1008B000030F01D10001121F830F01D18000921E8E
:1008C000002801DB4000521ED205511802125118B7
:1008D0001922904004D3491C002801D1490849003D
:1008E00008467047C10FC90700D040420122920755
:1008F0001143D3E701218907D0E7000010B5FF229B
:10090000C30D134009D05A4007D0914205DA5C422A
:10091000A14202DDC905081810BDC40FE407002B71
:1009200006D0002A06D0002902DBFF20C0050443C0
:10093000204610BD4102FCD0004810BD0000C07F21
:10094000754600F025F8AE46050069465346C008D6
:10095000C000854618B020B5FFF724FC60BC002716
:100960004908B6460026C0C5C0C5C0C5C0C5C0C57B
:10097000C0C5C0C5C0C5403D49008D46704710B5D3
:100980000446C046C0462046FFF7DFFB10BD00000E
:10099000004870478807002001491820ABBEFEE7D9
:1009A00026000200704710B50146406A826B502352
:1009B0001A420AD1816B01225202114381630168FC
:1009C000CA681205920F05D020E0006B026B084642
:1009D000904710BD827E002A18D10A68120715D5EB
:1009E0008A6853070122002B09DB4B680C24A343C0
:1009F0004B60816B130299431143816306E0816B65
:100A0000202319438163C16B1143C16300F0C0FA15
:100A100010BD10B5406A816B402211438163C16BE8
:100A200004221143C16300F0B5FA10BD10B5406A4D
:100A300000F0AFFA10BD0000F8B5044600200090A9
:100A4000206881688907890F012905D10168C907D4
:100A500031D1C16809042ED48168184A102611408A
:100A6000012500291AD1816829438160154814495C
:100A70000068FFF7B0FC00E0401E00900028FBD1AA
:100A800000F0C4FD074611E000F0C0FDC01B0228C5
:100A90000CD920680068C043C00707D0A06B304362
:100AA000A063E06B2843E0630120F8BD2068006884
:100AB000C043C007E8D10020F8BD00001700008047
:100AC00040420F004C00002000B5FF21712000F0D3
:100AD0003BF901213C2000F037F907213D2000F0CF
:100AE00033F90E21202000F02FF90121212000F000
:100AF0002BF90121222000F027F90321232000F007
:100B000023F9FA21242000F01FF90E21262000F0FD
:100B10001BF9FF21702000F017F900BD30B50E4918
:100B200000220B6803242406A3430B6001235B030C
:100B30008B6201244006000E8B610D69ED0401D526
:100B4000204301E0400840008B62521CD2B2082AC8
:100B5000F0D38B6230BD00000004004830B50124A2
:100B6000044DA403AC6200F0B7F8FFF7D7FFAC6107
:100B700030BD00000004004800B50720FFF7EEFF7D
:100B800000BD0000F7B50126084FB6031546BE624A
:100B900000F0A2F8002405E0FFF7C0FF0199085516
:100BA000641CE4B2AC42F7D3BE61FEBD0004004851
:100BB000F0B50D460646FF21E22000F0C5F8FF2102
:100BC000752000F0C1F8144908680322120690430A
:100BD00008600869C004FCD408689043012212062A
:100BE00010430860FF21742000F0AEF8FFF7C4FF47
:100BF000044640060DD56020FFF7B0FF07460246C9
:100C000031466120FFF7BEFF2F702146272000F0FC
:100C10009BF82046F0BD0000000400481CB511A45C
:100C2000FF21712000F090F8FF21742000F08CF873
:100C300005222146302000F06FF805226946102079
:100C4000FFF7A0FF0020694622780B5C641C9A42E3
:100C500001D001201CBD401CC0B20528F4D30020E7
:100C60001CBD0000434932345200000000B57D280D
:100C700000D97D200146252000F066F800BD10B5A2
:100C8000044601460522302000F046F805222146A0
:100C90002A2000F041F810BD00B50020FFF75EFFEC
:100CA00001210143202000F04FF800BD10B504469B
:100CB00001460522302000F02FF8052221462A2087
:100CC00000F02AF810BD0A4600B50146A82000F041
:100CD00023F8002000BD000030B5002301240D4A98
:100CE00064039462116803252D06A94395032943E3
:100CF000116061109462050601D5916100E0916276
:100D0000946140065B1C000EDBB2082BF2D39462A8
:100D100030BD000000040048F0B50D460127094928
:100D2000BF0316468F62FFF7D7FF002405E028783F
:100D30006D1CFFF7D1FF641CE4B2B442F7D3014845
:100D40008761F0BD0004004870B50125054CAD0376
:100D50000E46A562FFF7C0FF3046FFF7BDFFA56155
:100D600070BD00000004004810B5024800F0A8FA69
:100D700010BD00004407002010B504460068054976
:100D800040181421FFF727FB800020640248E0632D
:100D900010BD0000F8FFFDBF0000024030B5056C3B
:100DA0000124AC40C56B6C60046863604368102B21
:100DB000036803D099600068C26030BD9A60006823
:100DC000C16030BD72B6FEE7F8B505460446203571
:100DD000287D0026012808D0012028752068816818
:100DE0008907890F012908D101E00220F8BD0168B7
:100DF000C9073CD1C168090439D4A16BFF22013273
:100E0000914302221143A163C1688907890F0091B0
:100E1000C16889088900C160206881689207114310
:100E2000816000F0F3FB074612E000F0EFFBC01B0F
:100E300002280DD920688068002809DAA06B0221F9
:100E4000884310210843A063002028750120F8BDC5
:100E5000206880680028E8DB2068C168009A114398
:100E6000C160A06B80088000401CA06304E0A06B00
:100E700020210843A0630126002028753046F8BDD4
:100E8000F8B50025044620340095227D012A39D08A
:100E90000122227503689E68760767D4384F4E6832
:100EA000BE424DD09E6A0F78BA4016439E6201231F
:100EB000C26A1B079A421FD0012A1DD0022A1BD0EA
:100EC000032A19D0042A17D0052A15D0062A13D0D0
:100ED000072A11D002688B6856697607760FB342ED
:100EE0000AD05369DB08DB005361006842690B7A62
:100EF0005B075B0F1A4342610A68102A04D0112A6B
:100F000002D038E00220F8BD1E488368102A07D0BE
:100F100001229205134383600868102803D02AE059
:100F20000122D205F6E7194817490068FFF753FA7E
:100F30000A21484300E0401E00900028FBD11AE03F
:100F4000986A0E78B240904398620968102901D0DF
:100F5000112910D10B488268102904D0012189057C
:100F60008A43826007E00121C905F9E7816B2022ED
:100F7000114381630125002020752846F8BD00003B
:100F8000011000000027014040420F004C000020EB
:100F90007047704770470000F8B5002604460028E7
:100FA00005D0A06B25462035002802D007E001209F
:100FB000F8BD0020E0632875204600F0A9F8A06B7A
:100FC0001022C006002870DB2068816849076CD4B5
:100FD000A16B1301994302231943A1638168890717
:100FE000890F012905D10168C9070FD1C16809041A
:100FF0000CD4C16818239943A3681943C1602068C1
:101000000169636889008908194301612068C16822
:101010003D4B1940C160207E617E8003C9030843B7
:10102000A17E4B031843A36A012B02D001231B03AB
:1010300000E000231843E36818432369022B09D01A
:10104000002318432B79E57E5B0018430123012D13
:1010500002D00AE00423F4E7002927D0A16B202561
:101060002943A163E16B1943E163E1690D46FF3D4B
:10107000C23D02D0256A294308432168CD68054353
:10108000CD600125E16A2D07A94213D0012911D0B5
:1010900002290FD003290DD004290BD0052909D02E
:1010A000062907D0072905D010E028E0012109040E
:1010B0000843DAE721684D69ED08ED004D612168CC
:1010C0004D69A78D7F077F0F3D434D612168C9683A
:1010D0000E4D2940814207D10020E063A06B8008BB
:1010E0008000401CA06308E0A06B022188431043ED
:1010F000A063E06B1843E06301263046F8BDA06BA7
:101100001043A063F8E700001902FEFFE7FF3F83EA
:1011100070B586B0064614216846FFF75AF91A4999
:10112000306888422ED119498A69401502438A6184
:101130008A69024005924A69000202434A6149698C
:10114000002501400320009001900591092002959F
:101150006946C00600F074F90D480E4C21C42560A4
:10116000A5608020E560606020202061C001606192
:101170000848083C00F0F2F8002801D0FFF722FEF2
:101180003463666206B070BD002401400010024066
:101190000800024044070020F7B504460068002517
:1011A000806840073DD426462036307D01280AD08D
:1011B00001273775607E012807D02046FFF73CFCE9
:1011C000050002D02EE00220FEBDA06B16490840AB
:1011D000FF2101310843A0630020E0633075216BDB
:1011E00012488862216B1248C862216B114808635B
:1011F00021681C200860206841681022114341606A
:101200002068C1683943C1602168206B4031029B6E
:10121000019A00F0CDF820688168042211438160B2
:1012200000E002252846FEBDFEF1FFFFA7090008E9
:101230002D0A0008130A000830B5014620314B780A
:101240000022022B04D0042383630A70012030BDE6
:1012500003681C680E25AC431C6003681C686408A6
:1012600064001C600123056C1C46C06BAC404460EC
:101270004B700A70002030BD70B50024014620314B
:101280004A78022A03D004218163012416E002680F
:1012900013680E25AB431360026813685B085B009C
:1012A00013600122056C1346AB40C56B6B604A703E
:1012B00000220A70416B002900D08847204670BD8B
:1012C000F0B4C16B0D6801680C680422066C13460B
:1012D000B3402B420DD063070BD50B689B0602D49D
:1012E0000B6893430B60016C8A40C16B4A60C16A12
:1012F00019E00227B74002462F4001232032002F79
:1013000015D0A70713D50C68A40604D40C680A25C9
:10131000AC430C605370036C02219940C36B59605D
:1013200000211170816A002916D0F0BC08470827F7
:10133000B7402F4210D024070ED50C680E25AC43C1
:101340000C60046C1946A140C46B616083635370E8
:1013500000211170016BE6E7F0BC704770B5040026
:1013600021D00221204620300546417022681168B4
:101370000E48A3680140606826691843E368334358
:10138000184363691843A3691843E3691843084382
:1013900010602046FFF7F0FC0021A1630120687077
:1013A0002970084670BD012070BD00000FC0FFFF0E
:1013B000F8B504468C46203001780025012909D073
:1013C0000126067041780027012905D00770022503
:1013D0002846F8BD0220F8BD02214170A7632068AD
:1013E000016849084900016061462046FFF7D6FCC4
:1013F000E06A00282068016802D00E22114306E04E
:101400000A221143016020680168042291430160AF
:101410002068016831430160DAE7000070B50446D6
:1014200000F0F4F80546601C02D004480078241847
:1014300000F0ECF8401BA042FAD370BD4000002041
:10144000F8B5002303240125BAE02E469E40B44699
:1014500032407CD00E79B607B60F012E01D0022E95
:1014600017D186682746B6465E00B7400096764696
:10147000BE43B646CF68009EB74076463743876086
:1014800046686746BE430F79FF06FF0F9F4037430C
:1014900047600E79F643B6070ED0C6682746B446B5
:1014A0005E00B646B7406646BE43B4468F68764691
:1014B000B74066463743C7600E79B607B60F022EAF
:1014C00014D1DE08B60036180096366A5F07B446B7
:1014D000FE0E0F27B646B7406646BE43B4460F69B8
:1014E0007646B74066463743009E37620668274611
:1014F000B4465E00B646B7406646BE430F79B44672
:10150000BF07BF0F7646B7406646374307604E6851
:10151000B603B60F53D02D4FBE692E43BE61BE69D0
:101520009F08F607F60F2A4EBF00BE190096B66850
:101530000F27B4469E07360FB646B7406646BE43F1
:101540000927FF06B446B84202D1002710E036E072
:10155000204FB84201D101270AE01F4FB84201D104
:10156000022705E01D4FB84201D1032700E00527FF
:101570007646B74066463743009EB760184EB66859
:101580004F689643FF0200D51643154FBE60FE68B4
:101590004F689643BF0200D51643114FFE607E6828
:1015A0004F689643BF0300D516430D4F7E603E68DB
:1015B0004F689643FF0300D51643094A16605B1C2B
:1015C0000A681646DE4000D03FE7F8BD0010024032
:1015D000000001400004004800080048000C0048DA
:1015E000000401400069084000D0012070474269B2
:1015F00013460B401B0491430B4383617047002A41
:1016000001D08161704781627047000001488068A5
:101610007047000040000020024881680278891865
:10162000816070474000002010B506480168102214
:1016300011430160002000F007F800F027F80020B7
:1016400010BD00000020024070B504460D4D7D2005
:101650002978C000FEF7BFFE01460B480068FEF780
:10166000BAFE00F02DFB002809D1042C07D200227D
:101670002146401E00F02AF800206C6070BD012059
:1016800070BD0000400000204C00002008B5084854
:101690008169012211438161816911400091C26910
:1016A00001040A43C261C0690840009008BD0000FF
:1016B00000100240002805DBC106C90E0120884049
:1016C000014908607047000000E100E010B502F039
:1016D000B3F810BDF8B505460068354CC00352D5C7
:1016E000E0690026C00007D4E16920040143E161FC
:1016F000E1690140012600912E480168C90510D416
:101700000168821511430160FFF780FF074604E07E
:10171000FFF77CFFC01B642824D826480068C0055A
:10172000F6D5206A03273F02384020D06968394047
:1017300081421CD0206A226AB843012109040A436D
:101740002262226A8A4322622062C0070FD0FFF71A
:101750005DFF009008E0FFF759FF0099411A164815
:10176000814201D90320F8BD206A8007F3D5206AA1
:101770006968B84308432062002E04D0E169012063
:1017800000078143E1612878C00705D0206BA96874
:1017900080088000084320632878800605D5206BE8
:1017A00010218843E968084320630020F8BD000049
:1017B000001002400070004088130000F8B50F468A
:1017C000060059D03A4D2868C007C00FB84209D268
:1017D000286840084000384328602868C007C00FC8
:1017E000B84249D13068334C81070CD5400704D545
:1017F000606807210902084360606068F02188433F
:10180000B168084360603078C00726D0706801284E
:101810000ED0216802280ED0890700292CDA6168D1
:101820008908890001436160FFF7F0FE00900DE038
:1018300021688903F1E78901EFE7FFF7E7FE0099E7
:10184000411A1D48814201D90320F8BD60680C216E
:101850000840716889008842EFD12868C007C00F2E
:10186000B8420BD9286840084000384328602868EF
:10187000C007C00FB84201D00120F8BD3078400742
:1018800006D56068072109028843F1680843606053
:1018900000F028F86168094A0906090F515CC84040
:1018A000074908600020FFF7CFFE0020F8BD0000C8
:1018B000002002400010024088130000283F00086A
:1018C0004C0000200448054900684968044A49055D
:1018D000490F515CC84070474C0000200010024086
:1018E000383F000810B5104A51680C200B460340E1
:1018F0000E48042B17D0082B15D18B020C4C1B0F54
:10190000E45CD26A0A4B1207120F10339A5CC903C7
:1019100005D500231946FEF755FC214601E0204677
:10192000044901F070FF10BD0010024000127A005F
:10193000083F000800093D00FEB5040070D0207883
:10194000DC4DC0074AD068680007800F012807D027
:1019500068680007800F022809D16868C00306D5AF
:10196000286880033AD560680028E7D036E06168CF
:10197000012914D001208004002901D0052914D0A8
:101980002A68012109048A432A6029688143296061
:101990006068002816D0FFF739FE06460EE028687A
:1019A0000121090408432860F2E7296801432960FE
:1019B000F5E7FFF72BFE801B64286ED828688003AC
:1019C000F7D50BE0FFF722FE064604E0FFF71EFE08
:1019D000801B6428F1D828688003F7D4207801267A
:1019E000800700283CDA68680007800F07D0686825
:1019F0000007800F022809D16868C00306D4286850
:101A0000800716D5E06801280AD112E0E0680028B6
:101A1000286816D030432860FFF7F8FD074605E038
:101A200043E1FFF7F3FDC01B0228C6D828688007F2
:101A3000F7D52868F82188432169C9000843286040
:101A40000EE0400840002860FFF7E0FD074604E094
:101A5000FFF7DCFDC01B0228AFD828688007F7D449
:101A60002078000722D5E0690028686A0ED030434C
:101A70006862FFF7CBFD074604E0FFF7C7FDC01B18
:101A800002289AD8686A8007F7D50FE0400840001E
:101A90006862FFF7BBFD074605E09DE0FFF7B6FD76
:101AA000C01B022889D8686A8007F7D420780427E9
:101AB0004007002860DA00200190E869C00008D4DF
:101AC000E969B8060143E961E96901400120009133
:101AD000019079480168C90511D401688215114344
:101AE0000160FFF793FD009005E0FFF78FFD00997F
:101AF000401A642870D870480068C005F5D5A06801
:101B000001280AD0002801D0052810D0286A4008F2
:101B100040002862286AB84301E0286A30432862FE
:101B2000A068002812D0FFF771FD00900AE0286A33
:101B300038432862F1E7FFF769FD0099411A5F48D1
:101B4000814249D8286A8007F5D50DE0FFF75EFD90
:101B5000009006E0FFF75AFD0099411A574881426C
:101B60003AD8286A8007F5D40198002804D0E9699A
:101B7000012000078143E9612078C00635D56069FE
:101B800001280CD0401D686B23D038436863686B14
:101B9000400840006863FFF739FD064622E0686BA5
:101BA00038436863686B30436863FFF72FFD064670
:101BB00004E0FFF72BFD801B02285BD8686B8007D1
:101BC000F7D5686BF8218843A169C90008436863A9
:101BD0000BE0B8436863F4E74CE0FFF717FD801BA8
:101BE000022847D8686B8007F7D4206A00285ED0A7
:101BF00069680907890F022942D0012636060228A2
:101C0000286805D0B0432860FFF700FD044633E0A4
:101C1000B0432860FFF7FAFC074604E0FFF7F6FC44
:101C2000C01B022826D828688001F7D4E86AE16A38
:101C3000000900010843E862616AA06A0843696814
:101C40003D221204914308436860286830432860AD
:101C5000FFF7DCFC044604E0FFF7D8FC001B022879
:101C600008D828688001F7D521E0FFF7CFFC001BDA
:101C7000022801D90320FEBD28688001F5D416E0B2
:101C80000128F8D06868E96A01221204636A0240F8
:101C90009A420AD10907E26A090F914205D10F2140
:101CA00089040840A16A884201D00120FEBD0020BD
:101CB000FEBD0000001002400070004088130000CC
:101CC000094910B5401E884201D9012010BD074CBA
:101CD00060610321081F01F0AFFD0020A061072013
:101CE0002061002010BD0000FFFFFF0000E000E0C9
:101CF0007047704730B5034620331A7F012A26D03B
:101D000001221A770325CA682D02AA438D68002490
:101D10002A430125AD02AA434D6800682A430125E4
:101D2000ED02AA430D682A4301252D03AA430D693C
:101D30002A4301256D03AA434D69C9692A43012538
:101D4000AD03AA430A4342641C77002030BD022041
:101D500030BD0000F0B502462032137F012B1ED0AB
:101D6000012515770223537706687468B3687027D6
:101D7000BC430F682743776000680A4CA04205D037
:101D8000094CA04202D0094CA04204D180244968E9
:101D9000A34319438160557700201077F0BD0220DE
:101DA000F0BD0000002C0140000400400040014054
:101DB00070B5040005D025462035687F002802D084
:101DC00006E0012070BD00202877204600F014F8BE
:101DD00002206877211D206801F02AF80120403494
:101DE000A071A877E87720706070A070E070207113
:101DF00060716877002070BD08B51E4A01681E48F2
:101E0000914205D18269C1140A438261806907E069
:101E10001A4A914207D1C26902210A43C261C069CC
:101E20000840009008BD164A91420ED182690121F6
:101E300049040A43826180690022084000901146EB
:101E40001520FFF743FC152010E00E4A9142E9D11E
:101E50008269012189040A43826180690022084065
:101E6000009011461620FFF731FC1620FFF722FCE8
:101E700008BD0000002C014000100240000400409A
:101E80000044014000480140014620314A7F012AB8
:101E900001D00120704702224A770268D3680121ED
:101EA0000B43D3600068094A904205D0084A90422B
:101EB00002D0084A904204D182685207520F062A83
:101EC00002D002680A43026000207047002C0140E3
:101ED0000004004000400140F8B5054604462035A6
:101EE000287F0026012817D0012028770220687754
:101EF000226890687727FF23B8431B0298439060BD
:101F00000868502838D00EDC20284FD006DC002886
:101F10004CD010281ED149E00220F8BD302845D011
:101F2000402817D13AE060282ED0702819D001221D
:101F30001203801A0FD090420CD1CB684A6889688E
:101F4000206800F0C6FF20688168012292031143D7
:101F5000816000E001260120687700202877304664
:101F6000F8BDCB684A688968206800F0B2FF216834
:101F7000886838438860EEE7CA684968206801F0DD
:101F8000B7F85021206806E0CA684968206801F067
:101F9000C0F86021206800F0A7FFDCE7CA68496844
:101FA000206801F0A5F840212068F4E72268014686
:101FB0001046F0E7704770B50446006801690025D7
:101FC000C9438907002915DBC168C943890711D4B2
:101FD000E91E016101202077206880698007204682
:101FE00002D0FFF7E7FF04E000F0E6F8204600F03B
:101FF00071F9257720680169C943490717D4C16879
:10200000C943490713D40421C94301610220207741
:10201000206880698005800F204602D0FFF7CAFF44
:1020200004E000F0C9F8204600F054F92577206854
:102030000169C943090716D4C168C943090712D405
:102040000821C9430161042020772068C069800706
:10205000204602D0FFF7AEFF04E000F0ADF82046C6
:1020600000F038F9257720680169C943C90617D4FB
:10207000C168C943C90613D41021C94301610820AE
:1020800020772068C0698005800F204602D0FFF7C6
:1020900091FF04E000F090F8204600F01BF925774E
:1020A00020680169C943C90708D1C168C943C90784
:1020B00004D1891E0161204600F062F9206801699F
:1020C000C943090609D4C168C943090605D480215A
:1020D000C94301612046FFF70BFE20680169C9432F
:1020E000490609D4C168C943490605D44021C943FA
:1020F0000161204600F045F920680169C94389065D
:1021000009D4C168C943890605D42021C9430161A6
:102110002046FFF7EEFD70BD70B586B00446142171
:102120006846FEF756F9204E236801220920002454
:102130001E4952040225C006B3420ED14B69134317
:102140004B6149690294114005910F2109020091E8
:10215000019504950394694621E0154EB34220D1C0
:102160004B6913434B614B69134005934B69321321
:1021700013434B614969012611400591C02100912B
:1021800002940496019503946946FFF759F90320D8
:102190000090029469460496019503940548FFF760
:1021A0004FF906B070BD0000002C01400010024045
:1021B00000040040000400487047F8B50646044695
:1021C0002036307F00270D4601280ED001203077C1
:1021D000002A0CD0042A1BD0082A2FD00C2A3ED06B
:1021E0000127002030773846F8BD0220F8BD20686E
:1021F00000F082FE20688169082211438161206815
:10220000826904218A438261206881692A6912E017
:10221000206800F0B5FE206882690121C9020A43E6
:102220008261206881690122920291438161206864
:1022300081692A69120211438161D2E7206800F0A6
:10224000DFFE2068C16908221143C1612068C269AC
:1022500004218A43C2612068C1692A6912E02068AA
:1022600000F010FF2068C1690122D2021143C16150
:102270002068C269012189028A43C2612068C1695C
:102280002A6912021143C161ABE770B5040005D0A1
:1022900025462035687F002802D006E0012070BD69
:1022A00000202877204600F014F802206877211DCE
:1022B000206800F0BDFD01204034A071A877E877C8
:1022C00020706070A070E0702071607168770020ED
:1022D00070BD70477047000030B5044602222030C0
:1022E00000290AD004290DD02046403008290ED0FC
:1022F0004378012B10D0012030BD837F012BFAD110
:1023000082770AE0C37F012BF5D1C27705E003781D
:10231000012BF0D1027000E042700122206800F031
:10232000CBFD12492068124B884207D0984205D055
:10233000104A904202D0104A904204D1426C0125CA
:10234000ED032A43426420680122884204D00B49ED
:10235000884201D0984204D181684907490F062973
:1023600002D0016811430160002030BD002C014003
:10237000004001400044014000480140000400408A
:102380007047704770477047F8B502680446D069D7
:10239000116893689E4D06462E4025468035002ED6
:1023A00071D09C4FDE07F60F0F4037437ED0C70732
:1023B00006D0CF0504D5012717626A683A436A60E0
:1023C000820708D5DA0706D0276802223A626A68CF
:1023D00004273A436A60420708D5DA0706D0236823
:1023E00004221A626A6802231A436A60020709D546
:1023F00020220A40324305D0236808221A626B6803
:1024000013436B60020509D54A0107D501222368F1
:10241000D2021A626B68202213436B606A68002A3A
:1024200039D0800606D5880604D5A16E002901D0D2
:1024300020468847686821688968490602D42821AF
:1024400008422DD0204600F049FF216888684006E8
:1024500022D5EFF31080012282F310888A6840238E
:102460009A438A6080F31088606F002814D06A490C
:102470004163606FFEF700FF00280CD0606F416B76
:1024800008E000E012E0830610D58B060ED5A16EA1
:10249000A3E020468847F8BD2046FFF774FFF8BD4B
:1024A0002046FFF770FF00206860F8BD236E012B07
:1024B0007ED1C3067CD5CB067AD510231362226861
:1024C0009068264640064036002848DA616F086862
:1024D00040680004000CE8D0378B8742E5D9708350
:1024E0008869202834D0EFF31080012181F310880F
:1024F00011681F01B943116080F31088EFF3108059
:10250000012181F3108821688A68520852008A608C
:1025100080F31088EFF31080012181F31088216887
:102520008A684027BA438A6080F310882020286098
:1025300000202066EFF31080012181F310882168CC
:102540000A689A430A6080F31088606FFEF774FE91
:1025500002206066308B718B401A81B234E0308B80
:10256000718B401A81B2708B00289ED000299CD0BC
:10257000EFF31080012686F310881668FF272137B5
:10258000BE43166080F31088EFF31080012282F3BF
:1025900010882268966876087600966080F3108826
:1025A0002020286000202066A066EFF3108000E065
:1025B0000EE0012282F31088226815689D431560A1
:1025C00080F31088022060662046FFF7DBFEF8BD2E
:1025D000030606D50B0604D5E16E002900D058E7A6
:1025E000F8BD4006FCD54806FAD52046EFF3108129
:1025F000012383F31088146840239C43146081F303
:1026000010882021C1670021C16600F075F8F8BD6F
:102610000F08000020010004C932000810B50400B2
:1026200003D0E06F002802D007E0012010BD002198
:1026300078200155204600F027F82420E067206824
:102640000168490849000160204600F077FE012832
:10265000ECD0606A002802D0204600F06DFD2068B2
:1026600041680122D20291434160206881680822BA
:102670009143816020680168012211430160204676
:1026800000F0C0FD10BD000010B586B00446142156
:102690006846FDF79EFE15492068884224D11448FB
:1026A0008269012189030A43826182690A40059295
:1026B000426909010A434261406908400590C0200F
:1026C00000900220002101900320029104910390C8
:1026D00069460848FEF7B4FE002211461B20FEF7AB
:1026E000F5FF1B20FEF7E6FF06B010BD00380140E5
:1026F00000100240000400487047FEE73EB5002489
:102700001D48009401941B490294016049054160F1
:10271000024610210125083232C2042141610476AB
:1027200044768576C476FF21C2310462C1610146D8
:1027300020310D718562FEF72FFC002801D072B6A2
:10274000FEE70120000301900720029000946946F3
:102750000948FEF795FB002801D072B6FEE76946EE
:1027600005480095FEF78CFB002801D072B6FEE705
:102770003EBD0000002401405C050020F0B587B09C
:1027800014216846FDF725FE2748426901214904C6
:102790000A43426142690A400592426949000A437C
:1027A000426142690A400592426909010A43426155
:1027B000406909270840FF06059000222C21384671
:1027C000FEF71DFF194E002231461948FEF717FF8C
:1027D000002240211748FEF712FF2C20002401257B
:1027E000009002946946019503943846FEF728FE4E
:1027F000F320000100900194694602940C48FEF712
:102800001FFE029469460A48009601950394FEF75C
:1028100017FE4020009002946946019503940548F4
:10282000FEF70EFE07B0F0BD001002400870000079
:10283000000400480014004810B596B000240F941E
:1028400010941194129413941C2168461494FDF76B
:10285000C0FD202107A8FDF7BCFD3B4839490160B8
:102860002F21846041607D210461C9004461C16001
:1028700080218161FFF79CFA002801D072B6FEE743
:10288000012000030F900FA92F48FFF725FB002818
:1028900001D072B6FEE72C48FFF7F7FC002801D004
:1028A00072B6FEE7139413A927481494FFF752FA5F
:1028B000002801D072B6FEE760200090FF20F530BE
:1028C0000190042004900294039405940022694628
:1028D00006941D48FFF771FC002801D072B6FEE790
:1028E000042269461848FFF768FC002801D072B638
:1028F000FEE7082269461448FFF75FFC002801D074
:1029000072B6FEE70C2269460F48FFF756FC002816
:1029100001D072B6FEE701200794400309940C90A1
:1029200008940A940B9407A90E940748FFF7E2F95C
:10293000002801D072B6FEE70348FFF7EDFB16B0A2
:1029400010BD0000002C01409C05002010B58EB089
:1029500000240794089409940A940B941C21684657
:102960000C94FDF736FD30482E4901602F2184601C
:1029700041607D21C9000461C16080218161FFF750
:1029800017FA002801D072B6FEE701200003079075
:1029900007A92548FFF7A0FA002801D072B6FEE784
:1029A0002148FFF772FC002801D072B6FEE70B94B5
:1029B0000BA91D480C94FFF7CDF9002801D072B681
:1029C000FEE760200090FF20F53001900420049085
:1029D0000294002269461448FFF7EFFB002801D05B
:1029E00072B6FEE7042269460F48FFF7E6FB0028AF
:1029F00001D072B6FEE7082269460B48FFF7DDFBFF
:102A0000002801D072B6FEE70C2269460648FFF79F
:102A1000D4FB002801D072B6FEE70348FFF77CFB29
:102A20000EB010BD00040040E405002010B50C48B5
:102A30000A490160E1214902416000218160C160D1
:102A400001618161C1610C22016242614162FFF753
:102A5000E5FD002801D072B6FEE710BD0038014048
:102A6000BC060020FEE77047F8B507460A48154641
:102A700000780E46002801D100F046FDEFF31084E7
:102A8000012080F310882A463146384600F006F8C7
:102A9000E1B281F31088F8BD8000002070B50E46C9
:102AA00018214843134914464518E86A1835002888
:102AB00004D001280FD0022805D113E0284600F0E9
:102AC00059FDA04201D2002411E022463146284699
:102AD00000F07BFE0BE0284600F04CFDA042F4D253
:102AE0000446F2E73146284600F03FFE0446204601
:102AF00070BD0000800000200FB408B504A900914B
:102B00006A46039900F004F801B008BC04B0184705
:102B1000F7B598B007A802904020002504950390CF
:102B200018980C46059506902178641C002977D0EA
:102B3000252907D002A800F0F9FD05980028F3DA4E
:102B40001BB0F0BD01220021022713460826207881
:102B500023281BD02B2816D02D2802D0302806D1B0
:102B600001E0194300E03943641C002AEFD1002240
:102B700020780346303B0A2B0AD20A235A43121804
:102B8000303A641CF4E704200143EDE73143EBE7FE
:102B90000023C7B22E2F0AD1641C20780746303F8D
:102BA0000A2F04D20A277B431B18303BF4E76C281A
:102BB0000DD068280BD0702852D00BDC25285AD0B5
:102BC00058282ED063280CD0642858D110E06078A3
:102BD000641CECE7732832D0752817D078284ED1C2
:102BE0001FE01A981A9A0068011D1160017843E0ED
:102BF0001A981A9F0068061D3E60006801910092B5
:102C000001460A2202A800F0C0FC38E01A981A9F78
:102C10000068061D3E600068009201910A2209E0EA
:102C20002FE01A981A9F0068061D3E600068009207
:102C300001911022014602A800F00CFD1FE01A9835
:102C40001A9A0068011D116006683178761C002907
:102C500015D002A800F06AFD05980028F5DA0EE00C
:102C60001A981A9A00680823011D11600168102241
:102C700000960195DFE7252102A800F057FD641CAE
:102C80005BE70598002800DC5AE70498002804D088
:102C9000024607A91898FFF7E7FE0499059840181F
:102CA00005904DE770470000F8B5264D264F2846A1
:102CB0002030297806460836002913D00A292FD358
:102CC000002129700C460546A00039580A2922D057
:102CD0006100695A30580022FEF791FC641C042CF4
:102CE000F2DBF8BD002407461749A0000958002967
:102CF0000CD06100795A30580122FEF780FC641C28
:102D0000042CF1DB2878401C2870F8BD6100795A4A
:102D100030580022F1E76100695A30580122DBE7A0
:102D20000024A00039582A78914207D10549620051
:102D30002031895A30580022FEF761FC641C042CB3
:102D4000EFDBDFE7080000204C05002070B50D46E2
:102D5000044664212846FDF73EFB0649C0B28D4279
:102D600001D20A2800D90A20042C02D2024AA1006A
:102D7000505070BD8E0300004C05002010B5FEF7CA
:102D80004BFC10BD70B594B030216846FDF721FBB7
:102D900000240E94139410200994022504900D949D
:102DA0000F940520129401260095C0040C941094F1
:102DB00003960A90119408950B946846FEF7BCFDA3
:102DC000002801D072B6FEE707200C900E94012176
:102DD0000D950F940CA8FEF7F1FC002801D072B6F7
:102DE000FEE710A810961294FEF774FC002801D09C
:102DF00072B6FEE714B070BD7047000010B500F069
:102E000051FD00F0A1FD00F0C1FD00F0CBFF024834
:102E1000FFF7D1F810BD00002C06002010B5FFF719
:102E200043FF0248FFF7C7F810BD000074060020FA
:102E3000F0B502681A4B1B4C984201D0A04203D156
:102E40007025AA434D682A43174D184E184F9842D3
:102E50000AD0A04208D0174CA04205D0A84203D007
:102E6000B04201D0B84205D1144603221202944365
:102E7000CA6822438024A2434C69224302608A68C4
:102E8000C2620A688262984205D0A84203D0B0426A
:102E900001D0B84201D10969016301214161F0BD4E
:102EA000002C01400004004000400140004401406B
:102EB000004801400020004010B5CB06DB0E012188
:102EC000046A99408C430462016A9A40114301628A
:102ED00010BD30B58468FF252D021B021343AC439F
:102EE0000B432343836030BD826870239A430A43B7
:102EF00007210A4382607047F0B5026A5208520007
:102F00000262056A436882697024A24392080C68D1
:102F100092001443022295438A68164E2A43144DA8
:102F2000A84207D0B04205D0134FB84202D0134F89
:102F3000B84206D10827BA43CF6817430422974303
:102F40003A46A84207D0B04205D00B4DA84202D065
:102F50000A4DA84206D103252D02AB434D691D43FE
:102F60008B692B4343608461496841630262F0BD11
:102F7000002C014000400140004401400048014055
:102F800070B5026A10239A430262056A4268836937
:102F900073242402A3430C6824021C4320239D4372
:102FA0008B681B012B43124DA84208D11D46CB68EC
:102FB0008026B5431B012B434025AB4308E00D4D54
:102FC000A84205D00C4DA84202D00C4DA84208D111
:102FD0000325AD02AA434D69AD0015438A699200ED
:102FE0002A434260846149688163036270BD0000C6
:102FF000002C0140004001400044014000480140D5
:1030000070B5026AFF2301339A430262056A43687E
:10301000C2697024A24392080C68920014430122F2
:10302000520295438A6812022A43124DA84208D1DF
:103030001546CA68C614B54312022A430515AA43A9
:1030400008E00D4DA84205D00C4DA84202D00C4D11
:10305000A84208D103252D03AB434D692D011D4323
:103060008B691B012B434360C4614968C1630262E1
:1030700070BD0000002C01400040014000440140B0
:103080000048014030B5026A01231B039A430262E3
:10309000046A4268C36973252D02AB430D682D0293
:1030A0001D4301235B039C438B681B0323430C4C90
:1030B000A04208D00B4CA04205D00B4CA04202D03D
:1030C0000A4CA04205D10124A403A2434C69A401E7
:1030D00022434260C56149680164036230BD00005B
:1030E000002C0140004001400044014000480140E4
:1030F00030B5036A046A6408640004628469F025D8
:10310000AC43120122430A24A3430B4382610362AE
:1031100030BD30B5036A1024A34303628469036A97
:103120000F252D031203AC432243A024A34309011E
:1031300019438261016230BD10B5818CC90707D087
:1031400001684A6801235B049A43836A1A434A6010
:10315000818C890707D501684A6801231B049A43BB
:10316000C36A1A434A60818C490707D501684A68D7
:1031700001239B049A43036B1A434A60818C09071D
:1031800007D501684A680123DB039A43436B1A435E
:103190004A60818CC90607D50268916801231B0328
:1031A0009943836B19439160818C890607D5016827
:1031B0008A6801235B039A43C36B1A438A60818C3C
:1031C000490612D503685A6801210905046C8A432F
:1031D00022435A60026C8A4207D102685168032375
:1031E0005B059943436C19435160818C090607D5EF
:1031F00001684A680123DB04806C9A4302434A60F9
:1032000010BD0000FEB507460025803704467D60EE
:10321000FEF7FCF90190206800682646000760363A
:10322000002819DA2748009001210022490520468C
:10323000019B00F01BF900280ED0EFF31080012154
:1032400081F3108821680A6880239A430A6080F31A
:1032500010882020E06729E020680068400728D512
:10326000184800900121002289052046019B00F0AA
:10327000FDF800281DD0EFF31080012181F31088A4
:1032800021680A68FF2321339A430A6080F310887B
:10329000EFF31080012181F3108821688A685208B9
:1032A00052008A6080F31088202038603576032031
:1032B000FEBD2020E0673860256665663576002013
:1032C000FEBD0000FFFFFF0110B5406A002201466D
:1032D00040314A834A82FFF756F810BD10B5EFF32C
:1032E0001081012282F3108802681368FF242134C0
:1032F000A343136081F31088EFF31081012282F35E
:103300001088026893685B085B00936081F3108803
:10331000016E01290BD1EFF31081012282F3108895
:10332000026813681024A343136081F310882022DD
:1033300080210A5000210166816610BD70B50446E7
:1033400080682169E26908436169002511432268A8
:10335000084311683F4B19400143116021684868D8
:10336000032212039043E26810434860A169206A77
:10337000084321688A680B231B029A4302438A6030
:1033800035492068884210D13448006B8007800F8F
:103390000ED0012805D0022805D003280AD1022129
:1033A00009E0042107E0082105E02D49884201D108
:1033B000002100E010210120E369C003294A2A4EC0
:1033C000834222D1002906D0022907D0042907D040
:1033D000082935D108E0FEF775FA03E0104603E04E
:1033E000FEF780FA002830D0616840004A08801853
:1033F000FCF7F1FF01461039B14221D81A49491CA6
:1034000001400007400F08431DE0002906D00229B3
:1034100007D0042907D0082912D108E0FEF752FA94
:1034200003E0104603E0FEF75DFA00280DD0616866
:103430004A081018FCF7CFFF01461039B14201D9F4
:10344000012502E080B22168C8600020A066E06625
:10345000284670BDF369FFFF0038014000100240AC
:103460000044004000127A00EFFF0000FFB506465E
:1034700081B080360546044660350A9F2EE0781CF0
:103480002CD0FEF7C3F80499401AB84214D8002F84
:1034900012D020680168490720D5C169C9430907CE
:1034A0000CD4082707622046FFF718FF776000203A
:1034B0002876012005B0F0BD0320FBE7C069C043BA
:1034C00000050BD401202168C00208622046FFF7E6
:1034D00005FF2020706000202876EDE72068C16994
:1034E0000298884305D0002103988142C7D000206C
:1034F000E0E70121F8E7000010B50248FEF744FFBD
:1035000010BD0000BC06002010B5124C0320206145
:10351000606111A0A0612046A830E0610120800216
:1035200020620020A06260620BA12166E0620D496A
:10353000616610212067A166E06660670AA1E01D50
:10354000FCF7C2FE09A12046FCF7BEFE2020A071B8
:1035500010BD0000800000205465726D696E616CC2
:1035600000000000280500205254540053454747EE
:10357000455200000269C1688A4203D88068401A37
:10358000801800E0501A401E7047FFB583B00E4609
:1035900070420D9F0C9C0090002900DB084601251D
:1035A00002E0FCF722FF6D1C05998842F9DA0698C3
:1035B000A84200D90546002C04D0002E01DB780774
:1035C00000D5641EB80702D50698002810D0F80769
:1035D0000ED1002C0CD0A5420AD22021641E0398E3
:1035E00000F0A4F80398C0680028F2DA07B0F0BD34
:1035F0000398C0680028F9DB002E02DA2D21009E16
:1036000002E0780707D52B21039800F08FF8039884
:10361000C0680028EADBB807800F022810D106989E
:1036200000280DD1002C0BD0A54209D23021641EF8
:10363000039800F07BF80398C0680028F2DAD5E719
:10364000019700943146069B059A039800F002F812
:10365000CCE70000FFB581B001261F4634460A9D25
:10366000029802E0FCF7B7FE641C03998842F9D285
:10367000A74200D93C460B98C00718D1002D16D0A0
:103680000B98800701D5002F02D0202000900CE07D
:103690003020FBE76D1E0099019800F047F8019873
:1036A000C06800283DDB002D01D0AC42F2D3019868
:1036B000C068002835DB012F01D97F1E06E03146A6
:1036C0000298FCF788FE0399884202D30398464388
:1036D000F1E7154F31460298FCF77DFE0146029A4C
:1036E0007143511A0291395C019800F01FF801985A
:1036F000C068002805DB30460399FCF76CFE060025
:10370000E8D10B98C0070CD0002D0AD0AC4208D2EB
:1037100020216D1E019800F009F80198C06800286A
:10372000F2DA05B0F0BD0000F83E000810B504461E
:1037300080686368421C934205D323681954A260D1
:10374000E068401CE060A2686068824209D121689C
:103750002069FFF789F9A168884203D00020C0439F
:10376000E06010BD0020A06010BDF7B5064682B035
:1037700000200090F46817463069A04201D9051B6B
:1037800002E0B168201A0D1AB0686D1E001BA84235
:1037900000D80546BD4200D33D4670682A46001950
:1037A0000399FCF7B7FD00987F1B40190090039820
:1037B000641940190390B068A04200D10024F4605D
:1037C000002FD9D1009805B0F0BDF7B50446C76801
:1037D0008068E168C51B606816464018B54205D987
:1037E0000199FCF797FDB819E060FEBD2A460199E2
:1037F000FCF790FD0198761B411932466068FCF792
:1038000089FDE660FEBDF8B5040C8BB2264682B297
:103810005E430D0C1046370C5843360480190021C6
:10382000794116466E43370C360480197941264695
:103830006E438919F8BD00008307FF22DB0E9A4012
:103840008907090E9940002808DB830809489B0076
:103850001B18186890430843186070470007000F52
:103860000838830804489B001B18D8699043084314
:10387000D861704700E400E000ED00E0024610B5BA
:103880000020074B01464C00A4181C5D491C201861
:103890000A29F8DB0A21FCF7A8FDC0B210BD000020
:1038A0003805002010B5094C607800280CD0FDF7D1
:1038B000ADFEA169401A00D54042322804DB002049
:1038C0006070032000F01AF810BD0000080000200E
:1038D00010420DD01868401C1860052804DB052034
:1038E00018600878104301E008789043087070472A
:1038F00008789043087000201860704710B5642362
:103900000F4900280FD0002201280ED002280FD026
:10391000032811D0042805D10A614A6140210948D1
:10392000FDF765FE10BD0B6100E00A614B6110BD43
:1039300014200861282001E0C8200B61486110BDF7
:10394000080000200014004870B50E4C6169206921
:10395000014315D0E1690C4D491CE161814204D35A
:10396000002240212846FDF74AFE6169E06988424D
:1039700006D30020E061012240212846FDF73FFEEA
:1039800070BD0000080000200014004870B5264DEE
:10399000FF21002401312846FDF724FE012800D133
:1039A0000124012149022846FDF71CFE002801D10F
:1039B0000220044310212846FDF714FE012801D1FE
:1039C0000420044320212846FDF70CFE002801D1E5
:1039D000082004430121C9022846FDF703FE0128FF
:1039E00001D110200443012189022846FDF7FAFD88
:1039F000002801D1202004430C480D4B04700146DF
:103A000001222046FFF764FF094B04221B1D0749D2
:103A10002046FFF75DFF064B10220833034920467E
:103A2000FFF756FF70BD00000004004801000020B1
:103A30000C00002090B0FDF7F7FDFFF7A3F964201C
:103A4000FDF7ECFC73A10020FFF756F8FEF796FE99
:103A50007448416901273943416140690022384077
:103A60000E9011460920FDF731FE0920FDF722FED8
:103A7000FEF744FEFEF7E0FEFEF768FFFEF7D6FF16
:103A80006A48694900242F25846022C0846080260A
:103A900006616749C46041600838FEF789F900286B
:103AA00001D072B6FEE7614862494830846022C0A6
:103AB000846006616421C46041600838FEF778F9CB
:103AC000002801D072B6FEE75848D038FDF77CF9DF
:103AD000012803D158A10020FFF70EF85349142202
:103AE000F43908462430FDF757FB00F0B7F958A128
:103AF00003C90A91099056A103C90B900C910120AA
:103B0000FFF7FCFE7D25ED0002E02846FDF786FC70
:103B1000FDF784F80128F8D04FA10020FEF7ECFF54
:103B20000320FFF7EBFEFCF7CFFF7A20FDF79EF8AE
:103B3000FDF7B2F809A8FDF7B9F80BA8FDF79FF853
:103B40003A48FEF7A1F939484830FEF79DF900944C
:103B5000364C464DF43C03216846FDF7B4F80DA9F8
:103B600001A8FDF725F840062FD508A8007D0028FC
:103B70002BD00420FFF7C2FE3D4E7770FDF746FDC7
:103B8000B061684601790122104600F01BF96846D1
:103B900041790122032000F015F96846817901225C
:103BA000022000F00FF96846C1790122002000F0E0
:103BB00009F96846017A0022042000F003F96846FA
:103BC000817A0122052000F0FDF86078FCF792FE72
:103BD0000721C943FCF792FEFCF710FE254A264B4D
:103BE000FCF7E8FC234A254B5242FCF7E3FCFCF7C8
:103BF000A3FC06460020FFF741FE694608703046E8
:103C0000FCF726FE69464870287888700220FDF788
:103C100005FCA0E7626F61726420696E69740D0A29
:103C20000000000000100240004401402C0600206B
:103C300010270000004801404144432043616C6963
:103C400062726174696F6E206572726F720D0A0024
:103C50003443101001000000636932347231207463
:103C600065737420737563630D0A00000100002002
:103C7000080000206666666666A640409999134073
:103C800070B50022002901DB0C4601E04C42012204
:103C90002E4900250B68002812D0012818D02C4E80
:103CA00002281DD003282BD0042835D005281FD189
:103CB000002A41D0A1B20220FFF748F8002140E0DD
:103CC000002A02D05C63086820E05D63086821E098
:103CD000002A02D0DC63086809E0DD6308680DE0B3
:103CE000002A06D0A1B20120FFF730F83068056441
:103CF00070BD00210120FFF729F83068046470BD11
:103D00001348002A006803D0C4633068856370BD1F
:103D1000C5633068846370BD002A06D0A1B200205C
:103D2000FFF714F83068456370BD00210846FFF7BF
:103D30000DF83068446370BD00210220FFF706F8DB
:103D4000A1B20320FFF702F870BD00009C0500201F
:103D5000E405002030B511480224417801228D0687
:103D600000230F48002D01DA847104E0CD0601D54F
:103D7000827100E083718D0701D5847304E0CD0763
:103D800001D0827300E083730D0701D5847530BDC7
:103D9000490701D5827530BD837530BD0000002014
:103DA0005000002070B5064D0024E000401900F0DE
:103DB0002BF8641C062CF8DBFFF7CCFF70BD00006D
:103DC0005000002030B50F4D0023C00045191C469F
:103DD000A82904D90B46803B012A06D007E05829C0
:103DE00006D28020431A012A01D0012400E00024D9
:103DF0007D20C0004343D809002C00D040422880D9
:103E000030BD00005000002010B582790023C15E53
:103E1000012A02D0022A03D006E0002902DC03E0D6
:103E2000002901DA038017E00222825E914212D05B
:103E3000002905D003798C1A9C4203DDD11805E0D6
:103E4000438009E0511A994206DDD11A418009B236
:103E50004079FFF715FF10BD0188F7E710B5002086
:103E60001E24224B0A22C100C918487100283BD0E9
:103E7000012839D0022837D00A71401C0628F2DB0D
:103E80001B4900200A6850630A6890630A68D0637F
:103E90000968086417490A6850630A6890630A68E9
:103EA000D0630968086400211148FEF715FA04215F
:103EB0000F48FEF711FA08210D48FEF70DFA0C2104
:103EC0000B48FEF709FA00210A48FEF705FA04211B
:103ED0000848FEF701FA08210648FEF7FDF90C2113
:103EE0000448FEF7F9F910BD0C71C6E75000002038
:103EF0009C050020E405002030313233343536375C
:103F0000383941424344454602030405060708097F
:103F10000A0B0C0D0E0F1010010203040506070812
:103F2000090A0B0C0D0E0F1000000000000000002D
:103F3000010203040607080900000000010203044F
:103F4000603F00080000002050000000F80000085A
:103F5000B03F000850000020980B0000140100083A
:103F600000007800000000000000000000000000D9
:103F70000000000000000000050000000A00000032
:103F800000000000000000002000080004000800FD
:103F900000000048000400480000004800000048FD
:103FA00001000000040000000000000000127A0080
:04000005080000B53A
:00000001FF
